:020000040800F2
:1000000018DC0220C1010008F7750008BD5D00087A
:10001000F57500085705000895C1000800000000AC
:10002000000000000000000000000000297F000820
:1000300083090008000000008B7C0008B17F0008E5
:10004000DB010008DB010008DB010008DB01000820
:10005000DB010008DB010008DB010008DB01000810
:100060003B0A0008DB010008DB010008DB01000897
:10007000DB010008DB010008DB010008DB010008F0
:10008000DB010008DB010008DB010008DB010008E0
:10009000DB010008DB010008DB010008410A000861
:1000A000DB010008DB010008DB010008DB010008C0
:1000B000DB010008DB010008DB010008DB010008B0
:1000C000DB010008DB010008DB010008DB010008A0
:1000D000DB0100080DAC0008DB010008DB010008B3
:1000E000250A0008DB010008DB010008DB0100082D
:1000F000DB010008DB010008DB010008DB01000870
:10010000DB010008DB010008DB010008DB0100085F
:10011000DB010008B1A70008DB010008DB010008D3
:10012000DB01000849080008DB010008DB010008CA
:10013000DB010008DB010008DB010008DB0100082F
:10014000DB010008DB010008DB010008DB0100081F
:10015000DB010008DB010008DB010008DB0100080F
:10016000DB010008DB010008DB010008DB010008FF
:10017000DB01000819760008C10700080000000034
:10018000DB010008DB010008DB010008DB010008DF
:10019000DB010008DB010008DB010008DB010008CF
:1001A000DB010008DB010008DB010008DFF80CD0F0
:1001B00000F090F9004800470112010818DC022005
:1001C0000648804706480047FEE7FEE7FEE7FEE7F1
:1001D000FEE7FEE7FEE7FEE7FEE7FEE7CD8000086C
:1001E000AD0100082DE9F05F0546002092469B46D0
:1001F00088460646814640241BE02846414647463D
:10020000224600F0F9F853465A46C01A914110D3DD
:1002100011461846224600F0E0F82D1A67EB010857
:100220004F4622460120002100F0D7F817EB0009C5
:100230004E41201EA4F10104DFDC484631462A4627
:100240004346BDE8F09F10B5431A934209D2831884
:10025000881803E010F8011D03F8011D521EF9D2A1
:1002600010BD40EA01039B0703D009E008C9121F33
:1002700008C0042AFAD203E011F8013B00F8013B60
:10028000521EF9D210BDD2B201E000F8012B491E76
:10029000FBD270470022F6E710B513460A46044623
:1002A0001946FFF7F0FF204610BD2DE9FE4F81EA09
:1002B000030404F0004421F0004100944FF0000BCF
:1002C00023F0004350EA01045ED052EA03045BD0FD
:1002D000C3F30A54C1F30A552C44A4F2F334019435
:1002E000A0FB0254C1F3130141F48011C3F31303C3
:1002F00043F4801301FB024400FB034E840A970A77
:1003000044EA815447EA8357A4FB076802958D0AA3
:1003100005FB07854FEA932C04FB0C542705029D2F
:100320004FEA065847EA1637B5EB08056EEB070C9F
:10033000870E920E47EA811742EA8312A7FB020159
:10034000B6EB0B0164EB00042B0D43EA0C335E1893
:1003500044EB1C50DA465146E7FB0201C5F3130497
:100360004FEA0B3343EA14534FEA0432019C43EA49
:100370000603A4F10C040294009CCDE900B400F043
:100380005AF803B0BDE8F08F00200146F9E70EB53A
:1003900040F2334102910021CDE900110A460B469B
:1003A00000F049F803B000BDC1F30A5210B5C1F323
:1003B000130140F2FF3341F480119A4201DA002028
:1003C00010BD40F233439A42A2F2334203DC524260
:1003D00000F012F810BD904010BD202A04DB203A36
:1003E00000FA02F1002070479140C2F1200320FA88
:1003F00003F3194390407047202A04DB203A21FA86
:1004000002F00021704721FA02F3D040C2F120022D
:10041000914008431946704710B5141E73F100044B
:1004200008DA401C41F1000192185B411A4301D1E6
:1004300020F0010010BD2DE9F04D92469B4611B110
:10044000B1FA81F202E0B0FA80F220329046FFF772
:10045000C4FF04460F4640EA0A0041EA0B01534636
:100460005A46084313D0114653EA010019D0C8F187
:1004700040025046FFF7C0FF05460E46504659461B
:100480004246FFF7AAFF084305D0012004E02046BA
:100490003946BDE8F08D0020054346EAE0762C435E
:1004A00037430A986305E40AA0EB08000022FD0A1E
:1004B00044EA47540A3002D500200146E9E7010525
:1004C00010196941DDE9084500196941BDE8F04DA1
:1004D000A2E70000064C074D06E0E06840F001038B
:1004E00094E8070098471034AC42F6D3FFF762FE59
:1004F00084C40F08A4C40F0870B58C1810F8015BF1
:1005000015F0070301D110F8013B2A1106D110F8AC
:10051000012B03E010F8016B01F8016B5B1EF9D1B0
:100520002B0705D40023521E0DD401F8013BFAE736
:1005300010F8013BCB1A921C03E013F8015B01F8A1
:10054000015B521EF9D5A142D8D3002070BD00280E
:1005500000DC40427047FEE70020704700207047F3
:1005600010B50022044905480AF056FC0449034826
:100570000AF04CFC002010BD00160020EC03002007
:10058000000E00202DE9F0410E46074601462B489B
:100590000AF03CFC29480AF01DFC29494FF00008EC
:1005A00028A0C1F800803946326810F0F9F900201F
:1005B0002C4C03E0395C2154401CC0B231688142AC
:1005C000F8D829480078012828D12078AA2825D1F0
:1005D0006078DD2822D1A1780120032908D0234D9D
:1005E000012908D041B1072908D0022919D015E006
:1005F0001F49087012E0022028700FE003202870C5
:100600002079E17800EB01211AA0696010F0C8F9A7
:1006100069684FF4FC70814200D96860002041464F
:1006200005E00420E8E739542154401CC0B2326888
:100630008242F8D80020BDE8F0810000EC030020E1
:100640004000002075736220726563656976653AC3
:100650002025732E6C656E6774683A2025642E0A17
:1006600000000000001E00203C0000205800002078
:1006700002000020686F73742073657420746865CD
:10068000207061636B6574206C656E67746820749C
:100690006F3A25642E0A0000094A10B5D2F81822D4
:1006A000D2F814220AB1012010BD0A4601460448BE
:1006B0000AF0B2FBBDE8104001480AF0EDBB0000B3
:1006C000EC0300202DE9F04114460E4607460125B3
:1006D00007E0002C01DC002509E0012010F040FCBF
:1006E000641E31463846FFF7D7FF0028F1D128466F
:1006F000BDE8F08110B5806B816B496D022902D095
:10070000012180F8251003F011FB10BD2DE9F843FD
:100710008046274816460F4608990268002542F48D
:10072000800202600068234C00F480000090A4F175
:1007300040008463A063204820604FF00070C4E94B
:1007400001054013E560C4E904100011C4E9063056
:1007500040022062042060620120C4E90A052046AC
:10076000256303F036FC204603F05EFC134984F851
:100770003450A7B13B4642462046009603F0E5FBC5
:100780002068016841F01001016000221146392003
:1007900003F016FFBDE8F843392003F005BF01B0B0
:1007A00033464246BDE8F043024803F0A7BC0000D0
:1007B00030380240541E00202864024028000550B2
:1007C000014803F0C5BA0000141E0020074806497E
:1007D000016000212022C0E90112C1600161416174
:1007E000816103F001BB000000000550141E0020D1
:1007F00010B50021084606F047FA06F0F7FB064858
:100800000068016841F0010101600448016841F09D
:100810000101016010BD0000541E002000000550C1
:10082000074810B5016821F001010160642010F053
:1008300097FB04480068016821F00101016010BDC8
:1008400000000550541E002030B419481A4C1A49B3
:100850000068184D184B603CB839A84202D9154AB7
:10086000543A03E0984203D9124A583A126804E015
:10087000A04201D94A6800E00A6812F4006F15D05E
:100880004FF40062A84202D90A484C3803E098426B
:1008900003D908485038026004E0A04201D9CA6078
:1008A00000E08A600548006830BC004730BC7047F3
:1008B000541E002058640240B860024088010020A5
:1008C00001681823CAB2103AB2FBF3F2054B6FF37A
:1008D0000901032A9B5CC36500D9091D816508468F
:1008E00070470000EC340F0810B5014600208B69FA
:1008F0008A6A4FF0C07453B1B3F5005F15D072B17E
:10090000012A0CD0022A0AD0032A09D104E01AB124
:10091000012A06D0022A03D1C96AC90100D50120E3
:1009200010BDC96AA142FAD010BD002AF7D0012A31
:10093000F2D0022AF3D0032AF3D010BD10B5046818
:1009400063608368402B036803D099600068C260CD
:1009500010BD9A600068C16010BD30B5046825689C
:1009600025F480252560046863608368402B036854
:1009700003D099600068C26030BD9A600068C160B1
:1009800030BD70472DE9FC5F15460746DFF89080C3
:1009900028440190D8F800201C460E46526E21448F
:1009A000894652689047D8F80020781B4946526E15
:1009B000824652689047711938190090D8F8002083
:1009C0008946526E52689047D8F80020711B8B46BA
:1009D000526E009852689047002C1ED0D8F8001034
:1009E000361B4546496E01984A68314690472A6849
:1009F00031465046526E5268904728683C1B494623
:100A0000406E4268204690472A6859462046526EFA
:100A1000526802B0BDE8F05F1047BDE8FC9F0000DF
:100A20000402002010B54FF4806003F007FCBDE81D
:100A300010404FF4006003F001BC042003F0FEBB43
:100A40004FF4007003F0FABB70B5B3F5804F05D0DA
:100A50006FF0704140F82210002070BD50F8224025
:100A6000084B8E891C40D1E9003543EA05138D6897
:100A700089692D0245EA06452B430B43234340F881
:100A80002230E9E70000F0CFF0B50C6850F82430D0
:100A9000174A1340D1E90125D1E903672A433E43B0
:100AA00032434E6932438E693243CE6932430E6A15
:100AB00032434E6A32438E6A3243CE6A3243CE6B41
:100AC00032430E6B32434E6B32431A43082D01D131
:100AD00042F0400240F824204A6BB2F5801F05D155
:100AE000096819B1016841F4801101600020F0BD6E
:100AF0008000E0FFF0B500EB8204626802F0404540
:100B0000D1E9002342EA03128B688E891B0243EA73
:100B100006431A430E8A0D4B03EB065632430E7DF5
:100B20005F0107EB066632438E6932432A436260F7
:100B30000268D20207D54268098A22F4700203EBE8
:100B40000151114341600020F0BD00000000F0FFA2
:100B500030B5D1E901231A43D1E903352B431A43B8
:100B60004B690C681A438B691A43D1E90735012C8C
:100B7000496A046807D01A432A436FF30E040A43F4
:100B8000224302600AE024F4F8442B4321430B4340
:100B9000416803606FF30E010A434260002030BDDC
:100BA000426942EA4101416100207047F8B51446AC
:100BB0000546D1E9000210438A686FF01F03C96837
:100BC00003EB421242EA412108430090286103F0FE
:100BD00031FC064609E0601C07D024B103F02AFC72
:100BE000801BA04201D90320F8BDA8698006F2D479
:100BF0000020F8BDF0B56FF00F05D1E9003405EB2A
:100C000004145B1E23432E018C682F0306EB04247F
:100C100023434FEA054C0C8A8E8ACD68097E4FF03B
:100C20007F4E07EB04440CEB06560EEB0161012AE4
:100C30000CD082683F1107EB05352B432343334328
:100C400002F070420B43134383600FE08768084A49
:100C500017402A03A2F580523243C5683A43234322
:100C600005F070450B432B438260C3600020F0BD4C
:100C7000FF0F0FFF2DE9F0430446C56887B090468B
:100C80008946002001F0F8FE064625B1287910B10A
:100C900046F0020001E026F0020001F0EDFE2069BE
:100CA000012558B1D4E902128DE826000395638826
:100CB0002288046841464846A0471EE0124F134B65
:100CC000214638681B68427CE068984730B9E08864
:100CD000012801D0002001E03868806BA288E388F9
:100CE000A1680095CDE90410CDE902320195638831
:100CF00022884146484605F059F907B03046BDE81C
:100D0000F04301F0B9BE000004020020FC01002005
:100D10002DE9F0478146884640F2C32050434FF406
:100D20007A7190FBF1F502FB02F002EBD27100EB5D
:100D3000610617460023414648466D1CFFF722FE18
:100D4000012413E004FB04F007FB0700B04206DDBA
:100D50003B46224641464846FFF714FE7F1E3B466F
:100D6000224641464846FFF70DFE641CAC42E9DDD1
:100D7000BDE8F0871CB50024019401AC009400F09C
:100D8000E7F81CBD2DE9FF4F83B0814606988A46DF
:100D9000A0EB0A08109E00200090A2EB0904356821
:100DA000934654EA080018D02046FFF7D0FB0746C8
:100DB0004046FFF7CCFB87420BDA2046444680468C
:100DC0004846D14682465846DDF818B006900120C4
:100DD0000090002C07DD204606E007B04846BDE83D
:100DE000F04F00F03BB96042A0420AD04846D946D5
:100DF0006442C8F1000883464FF0FF37DDF818A0C1
:100E000000E001275148B8F1000F11D004EBD47174
:100E10004FEA610B01DACBF1000B4C480068807E91
:100E200088B3002F02DA30682044306000257BE070
:100E300000990029016821D0897E11B100278046E0
:100E400015E007B05A4649465046BDE8F04F05F058
:100E50000FBA28466D1C0FF009F838B9D8F8000011
:100E600009EB0701406E4268504690477F1CA7423D
:100E7000EFDD6D1E356007B0BDE8F08F8A7E1AB1D8
:100E80000027804617E019E0486E5A46514603682D
:100E900007B04846BDE8F04F184728466D1C0EF0D5
:100EA000E5FF38B9D8F8001009EB0700496E4A6829
:100EB000514690477F1CA742EFDDDAE700250FE09F
:100EC00008FB05B090FBF4F101EB0A00009951B169
:100ED0001E4A09EB05011268526E526890476D1C5C
:100EE000A542EDDDC7E7194909EB05030968496E1D
:100EF0004A6801461846F1E708FB05B090FBF4F19B
:100F000001EB0A0001903068384430600EF0AEFF0B
:100F100048B9009890B10D4809EB05010068406E92
:100F20004268019890476D1CA542E5DD3068002FAE
:100F300001DA20443060C01B30609CE7034909EBB4
:100F400005000968496E4A680199EBE70402002030
:100F50002DE9FF470F4640491646804609680C9820
:100F60001D460A7E012A1CD0A8EB0600791B50EA18
:100F700001031CD0A2F101090FF032FD00F58060E1
:100F8000824602F0A3FE00FB09F4504602F0A2FEE6
:100F900000FB09F1002C0CDAC4F50070801240420D
:100FA0000AE00090324639464046FFF7EBFEBDE8C6
:100FB000FF8704F50074A012002904DAC1F500715E
:100FC00089124C4202E001F500718C12002804DD08
:100FD000411C01EBD171491003E000EBD0714910C5
:100FE000401E00EBD0704210002C04DD601C00EBB2
:100FF000D070401003E004EBD4704010641E04EB8A
:10100000D47308EB0104ADF800403C18ADF8024081
:10101000A8EB02045B10B21AADF80440ADF808204A
:101020003144FC1AEA1AADF80C102844ADF80A2035
:10103000ADF80E000023ADF806401A4604216846BC
:1010400000F07AF8394640460DF0D6FC2946304685
:101050000DF0D2FCABE7000004020020064A136842
:101060001A7E012A05D0521E02EBD272521000F0F5
:1010700005B85A6E52681047040200202DE9F05F4F
:101080000646884640F2C32002FB00F14FF47A7016
:1010900091FBF0F702FB02F102EBD27001EB600B67
:1010A0001446B118234A301B7F1C1268526E136815
:1010B0000A4641469847012538E000BF05FB05F088
:1010C00004FB040159451CDDBC4219DD194B06EB3C
:1010D000050AA6EB05091B68AAF1010208EB040149
:1010E0005B6E09F101001B689847124BAAF10102DF
:1010F000A8EB04011B6809F101005B6E1B689847AF
:10110000641E0C4B3219301B1B68924608EB05011C
:101110005B6E81461B689847064B5246A8EB05015B
:101120001B6848465B6E1B6898476D1CBD42C5DD59
:10113000BDE8F09F040200202DE9FF4F43F6FF7445
:101140000F46664283B09B46814600210BE000BFFC
:1011500009EB8100B0F90200A04200DA0446B04277
:1011600000DD0646491CB942F2DB67480068406969
:1011700000280DD0B0F906101A46A1EB0B01B142C0
:1011800000DA0E46B0F90200801AA04200DD0446E3
:10119000B4E0DFF878A100200546CAF8000088E036
:1011A000781E854201DA6B1C00E0002309EB850CF8
:1011B00009EB8302BCF90200B2F90210A04244D14B
:1011C000A14215D139F92330059A39F9251003EBDD
:1011D000020C4D4A05981268084404EB0B01526E4C
:1011E0006045136801DA62462AE00246604627E05D
:1011F0002846A4464FF000087A1E0BE008B1401EB6
:1012000000E0781E09EB8003B3F90230634504D196
:1012100008F101089045F1DB2346A34248D01A1B90
:1012200039F92500A1EB040C059B92EA0C0F09D4B7
:10123000354A184404EB0B011268526E13680246DB
:10124000984735E00CF032F832E0A14230D001DBB3
:10125000A04203DDA0422BDBA14229DCE04688420C
:101260000ADC0346A04223DC0846A14220DBB8F991
:1012700000C0B2F9001008E00B46A14218DCA04201
:1012800016DBB2F900C0B8F90010E21AA1EB0C01AC
:1012900051430029A0EB030202DD01EB620102E0F1
:1012A000A1EB6201491CC01A91FBF0F06044C9E750
:1012B0006D1CBD42FFF674AF0598009004EB0B0067
:1012C000019000208046054613E01149B8F1000F57
:1012D00031F915A009D0009901EB0A0208440A4926
:1012E0000968496E0B680199984788F001085046D3
:1012F0006D1C064909688D42E7DB641CB4427FF728
:1013000048AF07B0BDE8F08F04020020F8020020CB
:101310002CCD022010B5002001F092FB6FF07F4031
:1013200001F099FB012001F0F1FB002001F0FCFB32
:10133000002001F009FC002001F09EFB0448006839
:1013400001F0A6FBBDE81040002001F0B1BB000099
:10135000000200202DE9F04FDFF828B191B04FF0E6
:10136000FF35DBF80030B3F922100691DE69B3F9DE
:101370002490F469A189814206D8E289824203D38C
:10138000471AD4F8008012E0D4E9018100296FD017
:101390000A8882426CD84D88854269D3801A82B20D
:1013A000486800EB8200B0F90070B0F90250781C78
:1013B0005ED0307EA17C10FB01FA217CCDE90701D3
:1013C000B3F92A60304605F0E1FCC0B20E90DBF8BC
:1013D000000007FB0A81A37C826B0127CDE9041280
:1013E000CDE90273C069089AC17E807ECDE9000113
:1013F000DDE90603494604F0D9FD681C18D046F023
:10140000020005F0C3FCDBF80000A37C05FB0A81A9
:10141000826BCDE90273CDE90412C069089AC17EDE
:10142000807ECDE90001DDE90603494604F0BEFDFA
:10143000DBF800005D46C069417E007E814214D920
:10144000022E12D086F0040005F0A0FC2868C069C6
:10145000027EC37E12FB0391437E857E089A069826
:101460004B4412FB050204F0D7FF0E9805F08EFCEA
:10147000DBF80000627C418C1144418411B0BDE86E
:10148000F08F00000402002004480068C069C069B1
:1014900009B1027C0A60407C704700000402002011
:1014A000022008807047C06982898A4202D8C289B6
:1014B0008A4210D2806880B102888A420DD843885F
:1014C0008B420AD3406800EB8100A0EB8200B0F9A8
:1014D0000000002801DB0120704700207047000059
:1014E0002DE9F043304C034687B020681946B0F927
:1014F0002A60C069C06900F086F8002850D04168B1
:101500000088181A01EBC0053046AF7805F03EFCA4
:10151000814620686A680123816BCDE90237CDE9F5
:101520000421C169CB7E8A7ECDE900230B7EB0F910
:1015300024102A78B0F9220004F038FD2068C06930
:10154000417E027E91421FD9C07E11FB00F812FB42
:1015500000F7022E18D000F0D5FC064600F0A0FCE3
:1015600001F079FA21682A78CB69B1F92200DB7E93
:1015700012FB0302B1F9241001EB0803394404F013
:101580004BFF304601F067FA484605F0FFFB206844
:101590006A78C369B0F922109B7E12FB0311418463
:1015A00007B0BDE8F08300000402002030B50F4C06
:1015B00005460B4620682946C069C06900F023F83B
:1015C000002812D04168008824682A1A0120E469A2
:1015D00000EBC200085CA47E10FB04F0002B04D0DA
:1015E00011F8321011FB04F1196030BD0402002023
:1015F00001200880704700B5C06900F004F8002899
:1016000000D0012000BD06E002888A4202D842884C
:101610008A4202D280680028F6D1704770B5002552
:10162000124C19E020691249C5EB051600EBC60003
:1016300070220968001DFEF706FE2069002140F8AF
:10164000361000EBC60000F10C018161011D0A1D7E
:10165000C0E90F126D1C4164A0688542E2DB00F016
:10166000D5FCBDE8704001F06FBC00000C03002009
:101670000402002070B50F490D480860084602F0CA
:10168000D9FA0C4C143CA068C0EB0010C5002846E9
:1016900000F06AF82A460021206102F0D3FA4FF0E8
:1016A000FF30206001F072FCBDE870400DF09ABE82
:1016B00069FA00082003002010B5040009D000F0EA
:1016C000A5FC20460BF056FE044601F03DFC2046EA
:1016D00010BD002010BD38B5054600F097FC284627
:1016E000FFF7EAFF040009D000F0C0F82A46002105
:1016F000009002F0A7FA684600F0EEF801F024FC32
:10170000204638BD024A106021F003005060704747
:1017100088CC022010B5040016D000F077FC0B48EE
:10172000406B10F8341059B1022909D2042101EBA1
:10173000C401415848680BF0D5FD20460EF082FAEE
:10174000BDE8104001F000BC10BD0000C8CB022075
:10175000002805D0034AD16B016001B14860D06315
:1017600070470000C8CB02202DE9F04104460DF07F
:101770003BFF2848E41C24F00305016C2D1DA94201
:1017800000D90D46C46B13E054F8042CAA420ED1C4
:1017900084B1216809B162684A60616809B1226850
:1017A0000A60C26BA24231D12168C1632EE0246875
:1017B000002CE9D18046816BC0680F1857F8040CE3
:1017C0003E1A306838B100200EF098FA57F8040C31
:1017D0003E1A3068D0B97068A84217DB3044441B09
:1017E0003046241D0EF042FAD8F80C10491BC8F8F8
:1017F0000C10D8F814102944C8F814107068401B55
:1018000002D031460BF06EFD44F8045C2046BDE882
:10181000F0810000C8CB022010B500240DF0E4FEDA
:101820000C490F2001EBC002526C1AB101EBC00051
:10183000406C08E0401EF5D508E04168A14200D99F
:101840000C46806810B180680028F6D1A4F10C0025
:1018500010BD0000C8CB0220034800680C380028E7
:1018600000DC002070470000C8CB02200549CA698F
:10187000521CCA61496B01EBC0010A78521C0A7004
:1018800000F042B8C8CB022010B500F0BFFBFFF754
:10189000C3FF64220849B0F5800F04D990FBF2F42D
:1018A000086A444303E0096A4143B1FBF2F401F0E2
:1018B0004BFB204610BD0000C8CB02200549102874
:1018C00005D94A68B0EB520F02D3500800E010204F
:1018D0008860704788CC02200A4902684B6B52F836
:1018E000082C03EBC2021378022B03D3CB690BB194
:1018F0005B1ECB611178491E117000210160084602
:1019000070470000C8CB0220002806D003490422FB
:1019100002EBC000496B085808307047C8CB022062
:1019200010B5C2B2CBB2D21A00D5524293B25B43C9
:10193000C0F30722C1F30724121B00D55242000C4A
:1019400092B2A0EB114002FB023200B2002801DA91
:10195000404200B280B200FB002010BD10B5002153
:10196000084600F025FB43F6FF725042BDE81040E8
:1019700013460146AFF300802DE9FC411C46154695
:101980000E46074600F042FB042005F0FFF98046B2
:101990001248C068C16C006D0F4406440D440444F5
:1019A000ADF80070ADF80450ADF80260ADF8064037
:1019B00068460BF01DF907E023462A4631463846B3
:1019C00004F02AFD0BF0D6F80028F5D1404605F0CA
:1019D000DDF901F0B9FABDE8FC810000F801002052
:1019E0002DE9F0411C4616460D460746022B02DB48
:1019F0000020BDE8F0811C20FFF7B6FE0028F8D0DB
:101A00000DB105610AE0094A52F8241009B905E050
:101A100011460A68002AFBD1096901618461868246
:101A2000002101604160C0E90217E2E71C020020CA
:101A300070B51D46FFF7D4FF040009D000F00EF882
:101A4000E068006820B90348006800EB8500846501
:101A5000204670BD04020020FFF77ABE70B590B337
:101A60008269022A30DA1E4C54F8221019B944F85F
:101A7000220032E019464B68002BFBD106E0CB6810
:101A8000C5681B682D68AB4203DD09680029F6D1E3
:101A90001AE0C1B1CB68C6681B683668B3420CD186
:101AA000838A012B05D008E01946DB681B68AB422E
:101AB00003DB0B68002BF7D129B14B6833B11860F9
:101AC0004A68426004E0FFE7012070BD44F822004C
:101AD0004860884200D100210160002070BD0000F4
:101AE0001C02002010B503E00468FFF7B7FF204692
:101AF0000028F9D110BD0EF04BBB00002DE9F041DC
:101B00000026DFF834800D4F354600BF58F82540D9
:101B100009E0E0680068385C20B120460EF038FB30
:101B2000266026462468002CF3D16D1C022DEDDBC7
:101B30003046BDE8F08100001C020020BC910F0877
:101B4000022801DB00207047054951F8200004E01D
:101B5000C16809680029F6D000680028F8D17047EC
:101B60001C0200202DE9FC4706005FD000F04EFA71
:101B700000F0D4F93C4C81462068B0F9228000F096
:101B8000E9F9216807468A8CD01B888441E000BFB0
:101B900047F6FF71304601F00BFF824601463046A2
:101BA00001F0DCFE2168054691F82C0000F00300EE
:101BB000012841D002283BD000204A8C101A4884CA
:101BC000ADF800006A1E1044ADF80400888CADF832
:101BD0000200A9F101010844ADF806006A46514629
:101BE000304601F05BFB2168BDF802008884514655
:101BF000304601F097F8064430780A281ED00D28A8
:101C00001CD0BDF80000216828444884307818B101
:101C1000761C30780028BBD12068818C39448184BF
:101C2000818D21F00301818501F08EF9BDE8FC87EB
:101C300005EBD5704010C0E72846BEE7206890F855
:101C40002C1001F0030101290BD0022909D0018CCD
:101C5000418431780A29D9D1828C02EB090181842F
:101C6000D4E7A0F82280F4E70402002070B51446FF
:101C70000D46064600F0CAF905480068458484848C
:101C80003046FFF76FFFBDE8704001F05DB900001E
:101C9000040200207CB514460D46064600F0B6F955
:101CA00011480068C16C006D0D4404443188681E01
:101CB0000844ADF80400ADF800507188601E084477
:101CC000ADF80600ADF8024068460AF091FF06E064
:101CD000224629463046FEF7CDFF0AF04BFF00288A
:101CE000F6D101F031F97CBD040200207CB5144628
:101CF0000D46064600F08AF910480068C16C006D78
:101D00000E440544301BADF800003019ADF8040056
:101D1000281BADF802002819ADF8060068460AF045
:101D200067FF06E0224629463046FEF7F1FF0AF03B
:101D300021FF0028F6D101F007F97CBD0402002044
:101D40002DE9F0411C4615460E46074600F05EF9A7
:101D50000C480168C86C096D074405440E440C44E6
:101D600000200AF045FF07E023462A463146384660
:101D7000FFF700F80AF0FEFE0028F5D1BDE8F041BB
:101D800001F0E2B8040200202DE9FC411C46164691
:101D90000D46074600F03AF91A480168087ECA6CF9
:101DA000096D17440D440C44401E391A1644ADF811
:101DB00000103118ADF80410291A2044ADF80600BF
:101DC000ADF8021068460AF013FF15E032462946C6
:101DD000384604F0EDF932462146384604F0E8F979
:101DE000621E691C384604F043FA621E691C3046C4
:101DF00004F03EFA0AF0BEFE0028E7D101F0A4F894
:101E0000BDE8FC810402002010B5002400E001249C
:101E100000F004F80028FAD1204610BD094810B59A
:101E20000068002410B1804700B101240AF068FB6B
:101E300000B101240448006810B1804700B10124BA
:101E4000204610BD280200202402002070B516464E
:101E50000C46054600F0DAF80B480068C16C006DCE
:101E60000D44044400200AF0C3FE06E03246214639
:101E70002846FFF703F90AF07DFE0028F6D1BDE8F9
:101E8000704001F061B8000004020020034951F8DD
:101E90002000C1688A6A0821104700001C02002047
:101EA00010B500F0B3F804F0E7FA04F081FB044643
:101EB00001F04AF8204610BD10B5044600F0A6F81F
:101EC000054800210068C0694268204690470446E2
:101ED00001F03AF8204610BD0402002070B50C460F
:101EE000054600F093F8064821460068C06942683C
:101EF00028469047044601F027F8204670BD0000B0
:101F00000402002010B500F081F804F0BDFA04F0DE
:101F10004FFB044601F018F8204610BD10B500F044
:101F200075F804480068C069447E01F00DF8204649
:101F300010BD00000402002070B50C46054600F0FC
:101F400065F82146284601F04FFDBDE8704000F0DD
:101F5000FBBF000010B5002400F058F80B480068E3
:101F600090F82C1001F00C01042904D0082906D0A7
:101F70000C2907D103E0C069047E641E02E0C06939
:101F8000007E440800F0E0FF204610BD040200205F
:101F9000024951F820000069006870471C020020C7
:101FA000024951F820000069406870471C02002077
:101FB00070B50D46044600F029F820460DF030FAC1
:101FC000044628460DF034FA044300F0BDFF2046D5
:101FD00070BD000010B501F091F80A492E2008707C
:101FE00000F0D3FF08480DF0B1FA04F01DFB0446E1
:101FF0000021084600F06AFD0AF000FBFFF70EFB27
:10200000204610BDF801002094CC022070B5184C79
:10201000E06820B100F0B7FF6168884204D000F0AA
:10202000B6FF00F0B0FF6060E068401CE06001288F
:102030001CD10DF0D7F905462068854216D000283E
:1020400013DBFFF75BFD01462068C0EB001220693F
:1020500000EBC2025167C5EB0511064A00EBC10057
:10206000011D1160406FFFF73DFD256070BD000050
:102070000C030020040200201CB5040004D10E480B
:102080000068046E002C16D0FFF7C0FF2046FFF753
:10209000EDFB009044696846FFF71EFC4CB12046FA
:1020A000FFF7E4FB019081688968884701A8FFF782
:1020B00013FC00F049FF1CBD0402002001490A4640
:1020C00000F002B801F0FFFF2DE9F04387B015469C
:1020D0000C465FEA000846D0FFF798FF002000F0AA
:1020E000CBFC814621480068066E4046FFF7BEFBE8
:1020F00000900068806900F087FC074640F6FF709A
:10210000C44204D10098B0F90440B0F906500098D8
:10211000611E0289ADF804401144ADF808104189F0
:10212000681E0844ADF80650ADF80A000AF034F80D
:102130006846FFF7D1FB01A80AF05AFD06E02A46DF
:102140002146404600F082FB0AF014FD0028F6D13B
:10215000384600F059FC304600F08AF9484600F055
:102160008BFC00F0F1FE07B0BDE8F0830402002014
:102170002DE9FE4F984691468A46834600270C9EDD
:10218000FFF744FF184819490068407C51F8204087
:10219000E1680968042903D02468002CF8D100E024
:1021A0001CB9FFF7CDFC04001BD0E0680121C26A16
:1021B00020469047050011D02469A0688047401C44
:1021C00002D10B4C46F001060096CDE9015443467E
:1021D0004A465146584600F0DFF9074600F0B4FE83
:1021E0003846BDE8FE8F0000040200201C020020DB
:1021F0009CC30F0838B504001CD0FFF707FF0E483A
:102200000068006EA04201D100F0F0FB2046FFF70D
:102210002DFB0090406908B100F07FFE0098006837
:10222000FFF71AFC6846FFF757FB2046FFF772FAE4
:1022300000F08AFE38BD0000040200202DE9FF4FA7
:10224000DFF83891074683B0D9F800009A468B46EC
:10225000447C4B4800570128204606DD04F072F903
:102260000546204604F07AF905E004F059F90546E0
:10227000204604F05BF904461FB302A901A8FFF74A
:102280005BFEB7F90000002800DA0020B7F9026011
:102290008046002E00DA002601984119B7F90400A3
:1022A000491E0DF040FA054602980119B7F90600DB
:1022B000491E0DF038FAA5EB0802841B521C641C61
:1022C00003E04FF0000846462A46BAF1000F01D15C
:1022D000C4F1000A002A4FDD002C4DDD109800905B
:1022E000534631464046FFF743FF5FEA000A10D0ED
:1022F00000F078F80746A04206D0D9F80000806CBC
:1023000010B132210AF04AFF504600F0B1F8002522
:1023100021E0594605988847012007B0BDE8F08FB5
:10232000611BB94202DA504600F086F83DB17219DD
:102330004146504600F0C4F85046FFF79DFE59460E
:10234000059888470F48016809B100208847504622
:10235000FFF7B4FE3D44A542E2DB5046FFF74AFFDB
:10236000002000F085F8A74206D0D9F80000806C64
:1023700010B133210AF012FF0020CEE70402002042
:102380003C0200204C03002038B505004FF000044B
:1023900011D0FFF73BFE2846FFF768FA009000686F
:1023A00000698068804704F0C5FF04466846FFF76F
:1023B00093FA00F0C9FD204638BD38B504000ED0B0
:1023C000FFF724FE2046FFF751FA00F118040090B1
:1023D0006846FFF781FA00F0B7FD204638BD0020BF
:1023E00038BD000038B504460025FFF70FFE1CB9C4
:1023F00008480068046E44B12046FFF737FA0090A1
:10240000B0F90A506846FFF767FA00F09DFD2846CC
:1024100038BD00000402002070B50546002428469F
:102420000BF0E6F8641C18B1BDE8704000F07AB813
:10243000052CF4DB70BD000038B50C46050004D156
:102440000A480068056E002D0FD0FFF7DFFD284613
:10245000FFF70CFA0090B0F90A10A14200DD4481A8
:102460006846FFF739FA00F06FFD38BD040200201E
:10247000F8B50546FFF7CAFD104E3068046ECDB1C1
:102480000CB100F0B3FA09F07BFF2846FFF7EEF934
:10249000009031680D660068FFF7E0FA6846FFF7C4
:1024A0001BFA04F079FD04F0CFFB00BF00F04CFDF7
:1024B0002046F8BD00F09AFAF8E700000402002078
:1024C0007CB515460E46040004D115480068046E1C
:1024D000002C24D0FFF79AFD2046FFF7C7F92DB254
:1024E0000090C58034B2848004F0AEFB009840694F
:1024F00080B1FFF7BBF9009A0190B2F90810818012
:10250000B2F90A20C28011B10AB10480458001A845
:10251000FFF7E2F96846FFF7DFF900F015FD7CBD33
:102520000402002001490A4600F002B801F0FFFF52
:102530007FB515460C4606002DD0FFF767FD3046E7
:10254000FFF794F940F6FF710190CC4203D1B0F946
:102550000440B0F906500289611E1144ADF80840EC
:10256000ADF80C104189681E0844ADF80E00ADF8B6
:102570000A5001A8FFF7B0F902A80AF039FB06E0FB
:102580002A462146304600F049F90AF0F3FA0028BD
:10259000F6D100F0D9FC7FBD2DE9FF4FDFF8E8B0A0
:1025A00083B01C46DBF80010DDE9106092464FF066
:1025B00000084B7C42461299FFF712FA050060D0E2
:1025C00028698068804704F0B5FE81460AFB09F15E
:1025D000C91DCF08FFF758F9F10705D1C11700EB66
:1025E0009170801000EB4000002C09DC1FB11838FE
:1025F000B0FBF7F000E000206442A04200DC04469B
:10260000F00707D10090DDE903012346524600F0B0
:1026100009FC8046002C03DC2846FFF71DFA30E059
:1026200004FB07F01830F10702D0FFF745F801E08E
:10263000FFF751F806001CD0FFF718F9019005606C
:10264000039981800499C180A0F808A04481C0F852
:102650001480C0E9037901A8FFF73EF91298AE6033
:102660002861DBF80000407CA861304607B0BDE877
:10267000F08F2846FFF7F0F95FEA080001D0FFF776
:1026800049F80020F2E70000040200202DE9F74F8E
:102690008EB0144689460E98FFF7E8F80990B0F915
:1026A00008B0B0F90A600068006940680C9009A899
:1026B000FFF712F9564D574F2868407C57F8200015
:1026C000C1688A6A082190470790182801D3202002
:1026D00007902868407C57F820000069069003C8DE
:1026E0000B904D48814201D0012000E000200A906B
:1026F000002000F04EFC00287DD1286809EB0B017A
:10270000B0F90C20891A491E002902DDABEB010546
:1027100000E05D46B0F90810494505DDA1EB09016F
:1027200089446D1A089101E000210891002D6BDDAC
:10273000B0F90E20A119891A491E002902DDA6EB65
:10274000010800E0B046B0F90A00A04204DD061B13
:102750003444A8EB060800E00026B8F1000F53DD72
:10276000089801900DA95F46DDF830A00E98009101
:10277000FFF723FE774300EB870101982B4601EB1F
:10278000800200994846CDE900A1214600F0DEFD17
:102790000090002838D00A98E8B1DDE906322946D1
:1027A000009800F0A5FCB0B90698009FDA46D0F872
:1027B00010C0BCF1000F05D004235A4639463846F4
:1027C000E04708E00B993868884701C7AAF1010083
:1027D0005FEA000AF6D100990020079ACDE90301CB
:1027E000059001200090CDE9010221460346641CBA
:1027F0002A46484600E007E003F0D8FBA8F10100B4
:10280000761C5FEA0008ABD111B0BDE8F08F000084
:10281000040200201C020020FB650008F8B51546E4
:102820000E460746FFF722F8009000681621C068A0
:10283000426A0020904704466846FFF74DF8002C96
:1028400003D02A4631463846A047F8BDF8B51646AB
:102850000F46050012D0FFF709F80090446968465A
:10286000FFF73AF82846FFF78FFD0346082800DDFA
:102870002CB13246394628460DF0AAFCF8BD324646
:10288000394628460DF044FEF8BD10B5002821D089
:1028900009B30AB3B1F90040B2F900309C4200DA42
:1028A00023460380B1F90240B2F902309C4200DABB
:1028B00023464380B1F90440B2F904309C4200DD64
:1028C00023468380B1F90610B2F90620914200DC5C
:1028D0001146C18010BD11460A6802604968416016
:1028E00010BD00280BD003880B4403808388194453
:1028F0008180418811444180C1881144C180704762
:1029000070B50025FFF782FB094CD4E90020824214
:102910000AD0D2E9005610460CF0A0FD20603146E6
:10292000284609F05FFF012500F00EFB284670BD28
:10293000FC0200202DE9FC41154DDDE908742D68ED
:10294000B5F90860864200DD3046B5F90C60964264
:1029500000DA3246824219DBB5F90A608E4200DDA8
:102960003146B5F90E509D4200DA2B468B420DDB05
:1029700000E02C46E5682D6825B1042D02D02568BD
:10298000002DF6D1CDE9007403F044FFBDE8FC81D1
:1029900004020020B0F90220B1F906309A4213DC9B
:1029A000B1F90220B0F906309A420DDCB0F90020EE
:1029B000B1F904309A4207DCB1F90010B0F9040013
:1029C000814201DC01207047002070470146024827
:1029D00070220068FDF737BC040200200249702213
:1029E0000968FDF730BC00000402002010B5FFF7B5
:1029F0000DFB04F0DFF804F0CFFA09F0CDFBBDE8E1
:102A0000104000F0A1BA000070B50B4D04462868D4
:102A1000467CFFF7FBFA022C09D22046FFF790F81C
:102A200028B128684474FFF7E1FF0448046000F00F
:102A30008BFA304670BD0000040200208C0200209A
:102A400010B50446FFF7E2FA204604F0D3F8BDE8DB
:102A5000104000F079BA10B50446FFF7D7FA2046C7
:102A600004F000F9BDE8104000F06EBA014988603A
:102A700070470000F801002010B50446FFF7C6FAC1
:102A8000204604F083F9044600F05EFA204610BDAB
:102A900070B50446FFF7BAFA04480068C56904B186
:102AA000C46100F051FA284670BD00000402002005
:102AB00070B50546FFF7AAFA03480068847E85765C
:102AC00000F042FA204670BD0402002070B50C46AA
:102AD0000546FFF79BFA094822460580084804800E
:102AE00008480068417C084850F82100C1680B6A1A
:102AF00029469847BDE8704000F026BA44020020FD
:102B000046020020040200201C02002070B5054689
:102B1000FFF77CFA03480068047E057600F014FA9B
:102B2000204670BD0402002070B50446FFF76EFA1F
:102B300004480068B0F92C50848500F005FA284656
:102B400070BD00000402002070B50446FFF75EFA75
:102B500004480068B0F92A50448500F0F5F9284689
:102B600070BD00000402002002480068002800D068
:102B7000004770472803002002498A6802B988602C
:102B8000FFF7F2BFFC02002010B504000ED0FFF7E3
:102B90003DFA20460DF084F820460DF0D1FA20468B
:102BA000FEF7B8FDBDE8104000F0CEB910BD38B555
:102BB0000C46050011D0FFF729FA2846FEF756FE0D
:102BC00000908089204201D0012400E00024684662
:102BD000FEF782FE00F0B8F900E00124204638BD7F
:102BE00038B50546002028600648046844B12046F0
:102BF000FEF73CFE0090006928606846FEF76CFE18
:102C0000204638BD8403002038B504004FF0000092
:102C10000D46086011D02046FEF728FE009084681B
:102C200044B16846FEF758FE2046FEF71FFE0090AE
:102C3000006928606846FEF74FFE204638BD000058
:102C40002DE9F84FDFF898800546264F98F81800D0
:102C50008B46410738680A9E9946407C924607D4C5
:102C600003F070FC04463868407C03F077FC06E013
:102C700003F074FC04463868407C03F063FC0027D2
:102C800085B1441EB9EB060000D54042142806DB8E
:102C90005146BBEB0A0000D54042142804DA01205B
:102CA000BDE8F88F641EEDE70A464B4659463846A4
:102CB00000960CF02DFD0C4F4B46524647F8350060
:102CC0005946204600960CF023FD07EBC5014860ED
:102CD0000DF008F901210020C8F81C10E0E7000001
:102CE000480200200402002004CD0220014988612E
:102CF00070470000480200202DE9F041084E0446CC
:102D0000056830680168284688470746306841688A
:102D100028468847284420603846BDE8F0810000F6
:102D2000080200202DE9F0410C4606460025064F1A
:102D300005E0386841683046884706440544641E0B
:102D4000F7D22846BDE8F081080200202DE9F041C5
:102D50001E46069C1746884605463A46A8687F1CCC
:102D60003346D0F804C041462846E047641EF4D1FB
:102D7000BDE8F08170B5B0F90040091BB0F904401E
:102D80008C422CDD00F11404B0F902500069521B92
:102D900002FB0040CA1800EBE104521ED010B0EB59
:102DA000E10501F007034FF0FF0102F0070221FAED
:102DB00003F0C2F1070201FA02F1CEB221780FD07E
:102DC00001436D1E04F8011B002D05DDFF2229467D
:102DD0002046FDF758FA2C4420783043207070BD0F
:102DE00030400143217070BD10B5B0F90030B0F92A
:102DF0000240C91A00F114030069121B02FB0030E3
:102E000000EBE10001F0070302788021D9400A437A
:102E1000027010BDB0F90610026951431430FDF77D
:102E200039BA00002DE9F843804602F10F00001185
:102E3000470003FB07F01C46154689461430FEF791
:102E40004AFC060018D0FFF7E1F83046FEF70EFD09
:102E50000090A0F80080A0F802908580C480074907
:102E600081600121818107616846FEF735FD00F030
:102E70006BF83046BDE8F8830020FBE728C40F0854
:102E800070B5B0F90660B0F904400B6800F11405A4
:102E900096421BDD0069A34202FB005000EBE302F7
:102EA00014DA641EE010A0EBE30512F8010B03F046
:102EB0000704A040C4B206E045B1083312F8014B44
:102EC00023F007036D1E002CF6D004E0002070BD37
:102ED0006006040E5B1C2006FAD5FF2C07D01846AE
:102EE00002E06406240E401C6606FAD400E0D81DF9
:102EF000C443640705D006E012F8014BFF2C09D14A
:102F000008306D1EF8D5C01A401C0B6070BD6206FB
:102F1000140E401C2206FAD4F5E738B50546FFF733
:102F200075F82846FEF7A2FC00908189491E0CB274
:102F300084816846FEF7D0FC14B92846FEF7EAFB08
:102F400000F002F838BD00000348C168491EC160A6
:102F500001D100F01DB870470C03002010B54FF4EC
:102F60000004214601200EF08DFB2146FEF7CAFB2E
:102F70008020FEF7A3FCBDE810400148FFF776BDB6
:102F800024990F08704700207047704770477047BA
:102F900070470EB508B102AA00E00022002301A983
:102FA000684600F08DFC0EBD074910B50C7818B1CD
:102FB00001200870801E03E0002008706FF07F4041
:102FC00002F040FF204610BD3E02002010B5082A46
:102FD0000EDC0346012A18D0022A56D0042A76D0E5
:102FE00010F8042B03F8012B491EF9D1012010BD64
:102FF000102A08DC4FEA000230F8043B22F8023BBA
:10300000491EF9D1F2E7002010BD10F8042BD207B9
:10301000120E491E34D010F8044B491E04F001046E
:1030200042EA84122CD010F8044B491E04F001042B
:1030300042EA441224D010F8044B491E04F0010463
:1030400042EA04121CD010F8044B491E04F001049B
:1030500042EAC40214D010F8044B491E04F00104E3
:1030600042EA84020CD010F8044B491E04F001041B
:1030700042EA440204D010F8044B04F00104224355
:1030800003F8012B0029C0D1B0E710F8042B9207F8
:10309000120E491E15D010F8044B491E04F003040B
:1030A00042EA04120DD010F8044B491E04F0030448
:1030B00042EA840205D010F8044B04F003042243D2
:1030C000491E03F8012B0029DFD18FE7FFE710F835
:1030D000042B1207120E491E05D010F8044B04F001
:1030E0000F042243491E03F8012B0029EFD17DE78D
:1030F00038B50024009400F01DF838BD0B4810B519
:103100008169002910D101218161FFF727FFFEF7B6
:10311000B1FA03F07DFF054905481C310860BDE8A0
:103120001040084600F086BD10BD0000F8010020E8
:1031300009FA00082DE9F0410D460699044601B947
:1031400001461F68082A09DC0E46012A1AD0022A05
:103150005BD0042A7DD0082A13D18DE0102A07DC29
:10316000D3F810C00E46BCF1000F04D0022389E052
:103170000020BDE8F08101CCB84726F8020B6D1E97
:10318000F9D189E001CCB847C0074FEA10686D1E3D
:1031900036D001CCB84748EA801000F0FF086D1E19
:1031A0002ED001CCB84748EA401000F0FF086D1E51
:1031B00026D001CCB84748EA001000F0FF086D1E89
:1031C0001ED001CCB84748EAC00000F0FF086D1ED1
:1031D00016D001CCB84748EA800000F0FF086D1E09
:1031E0000ED001CCB84748EA400000F0FF086D1E41
:1031F00006D001CCB84740EA080000F0FF086D1E79
:1032000006F8018B002DBDD146E001CCB847800700
:103210004FEA10686D1E16D001CCB84748EA00107E
:1032200000F0FF086D1E0ED001CCB84748EA8000C0
:1032300000F0FF086D1E06D001CCB84740EA080038
:1032400000F0FF086D1E06F8018B002DDDD123E094
:10325000FFE701CCB84700074FEA10686D1E06D0A3
:1032600001CCB84740EA080000F0FF086D1E06F8E0
:10327000018B002DEDD10FE0D3F810C0BCF1000F91
:1032800004D001232A462046E04705E001CCB84798
:1032900006F8010B6D1EF9D101206AE77CB50646E0
:1032A00028480D46006868B1002009F0A1FC06E03E
:1032B0006A46294630460AF059FA09F05BFC0028B4
:1032C000F6D17CBD106800901F4C506801902268B8
:1032D000BDF8000032F84C1F0844ADF80000BDF8FE
:1032E000020091880844ADF80200BDF8040011887E
:1032F0000844ADF80400BDF8060091880844ADF814
:103300000600684609F074FC0EE000BF2068BDF8B6
:1033100000106A464184BDF8021081842946304677
:103320000AF024FA09F026FC0028EFD1206830F8D2
:10333000221F428D891A01804188C28D891A4180DD
:103340007CBD000040020020040200202DE9FF4F58
:103350008DB00020DDF86CA0164600901D46044696
:103360000246CAF8000008AB03A902A800F0A8FAB8
:1033700018B1002011B0BDE8F08F0898854200DD3B
:103380000546614F0B9561493868407C51F8201023
:10339000049109690691FEF779FD05903868407C33
:1033A000FEF7FEFD5A498146884204D059498945B5
:1033B00001D0012000E000200A9001CE1A99884730
:1033C0008346000E079077D0009870BB0D9800EBF5
:1033D00004084D480068B0F90800404503DDA0EB43
:1033E0000807804600E000270298049900EB84005B
:1033F00000EB8700CDE900010B990D984218099266
:103400000E9B40461946521EFFF794FA0120009089
:10341000059818280ADA0298DDE9052300EB8400F4
:1034200000EB8700E91B00F0A9F912E00A9880B1CF
:10343000029800EB840000EB87070998A0EB0808CE
:1034400049463868884701C7A8F101005FEA0008CB
:10345000F6D13148C06980B3DDE9020700EB840092
:1034600007EB8402CDE902022B4C361F3046E4699B
:103470002B460299A047FF213068B1EB106F02D1B3
:103480000298006804E0029A1268B1EB126F01D151
:10349000039A1060029806F10406001D029003983A
:1034A000001D03906D1EE7D10397DAF8000040F08D
:1034B0000101CAF8001020E021E0FFE70798FF288B
:1034C00011D0C0F1FF02029850F82410584600F0C5
:1034D00057FB039941F82400DAF8000040F001019D
:1034E000CAF8001005E00298039950F8240041F84A
:1034F0002400641C6D1E7FF460AF03983AE70399C3
:1035000041F824B0E8E70000040200201C0200207B
:10351000FB650008F9650008580300202DE9F04F0D
:103520008FB01D4616460F468146DDF87480189C04
:10353000FEF7E8FC0B9002F0A7FF0190DDE91A010D
:1035400008434FEA460B012803D04FF0000A0997C1
:1035500009E188480068407CFEF722FD1C994FF085
:10356000000C884211D101200DF1040810210090B7
:1035700088E80308CDE9044C2B46324639464846D4
:1035800002F014FD0FB0BDE8F08F7819401E0490D2
:1035900009EB0600A0F1010A76480168B1F90A209A
:1035A000BA4207DDD31B174603FB0BF222F00102E0
:1035B0001444ED1AB1F90E30049AD21A002A00DD33
:1035C000AD1A002DDEDDB1F90C30AAEB0302002AA2
:1035D00000DDB61AB1F90800484505DDA0EB090089
:1035E000361A04EB40048144002ECBDD0020CDF8D8
:1035F00018C00890B8F1000F09D0D8F8140008904E
:1036000028B100231A46194606A800F059F902F01D
:1036100043FF804657480068407CFEF7B9FC0590A0
:10362000D8F800C0524639464846049BE047002877
:103630005CD10698E8B34F484F490068407C51F888
:10364000200000690069049030E0089F02233246A0
:1036500020460699B847049830B10699049F042380
:1036600032460846B8470EE0069800278246814653
:1036700007E000BF059959F8040B88474AF8040B86
:103680007F1CB742F6DB0027DDF8189006E000BF8C
:10369000D8F8041059F8040B88477F1CB742F7DBB1
:1036A000D8F8080080472BF0010004446D1ECCD2EE
:1036B00019E016E0A14600270AE000BF1C9939F87E
:1036C000020B884705998847D8F8041088477F1C63
:1036D000B742F3DB3DB1D8F8080080472BF001007A
:1036E00004446D1EE6D2D8F80C0080473DE01B99DB
:1036F000099808440D90401E07901E4801680798DD
:10370000B1F90A20824225DCB1F90E1009988142F4
:1037100020DBA0460027CDF8289019E038F8020BEE
:103720000090DDE90001884205D01C99884703F02C
:1037300099FA009801900A991A98079B0A18009222
:10374000DDE90910521E02F067FE009A7F1C0A9202
:10375000B742E3DB0BEBDB7020F0010004440D9873
:103760000AF1010A0990AA45C1DB0B98FFF773F92A
:1037700008E70000040200201C0200202DE9F05F91
:103780000C1E16DD5E68014600EB8405082A12DC7B
:10379000611E012A26D0022A47D0042A6AD0082AAC
:1037A00007D1071917F8010DB04745F8040D641E3D
:1037B000F8D1BDE8F09F102AFBDC5F693FB12246DB
:1037C000BC46BDE8F04F02235DF804EB604701EB17
:1037D000440700BF37F8020DB04745F8040D641EDA
:1037E000F8D1E6E700EBE10001F0070710F801A9C6
:1037F0008146802020FA07F8B5F104050AEA08009E
:10380000C7F10701C840B04745F804093FB14FEA86
:1038100048604FEA10687F1E641EEFD1C9E719F8AF
:1038200001A907274FF00108F6E700EBA10001F01E
:10383000030710F801A981467900C02020FA01F899
:103840004FF0060BB5F104050AEA0800ABEB47019F
:10385000C840B04745F804093FB14FEA88604FEAD5
:1038600010687F1E641EEFD1A3E7032719F801A992
:10387000B846F7E700EB6100012710F801A9A7435C
:103880008146B900F02020FA01F84FF0040B2D1FFB
:103890000AEA0800ABEB8701C840B04745F80409C5
:1038A0003FB14FEA08704FEA10687F1E641EEFD1E7
:1038B0007FE719F801A901274FF00F08F6E700008C
:1038C0002DE9F047224C06461F46A06990468946DE
:1038D000002540B90120A06104F120011D480860C5
:1038E000084600F0A7F9606930B91B4800686061BC
:1038F00010B902F018FE606107B138604EB1A068DF
:1039000030B960698000FDF72FFFA06000B9012584
:103910003060B9F1000F0AD0E06830B9606980000A
:10392000FDF722FFE06000B90125C9F80000B8F1F9
:10393000000F0AD0206930B960698000FDF714FFDC
:10394000206100B90125C8F800002846BDE8F087CD
:103950005803002091FA00083402002073B5124A7F
:1039600001A900981268904700240090C8B10F493F
:1039700000250968C969496959B10A684AB10199BC
:1039800090477CBD6846FFF7B7F90546FEF794FA05
:1039900004440198401E0190F4D5284600F032F806
:1039A000044420467CBD0000800300200402002067
:1039B00073B50D460098002490B10A490968C96999
:1039C000496959B14A684AB1294690477CBD684661
:1039D000FFF792F920B10A2802D0641CAC42F6DB52
:1039E00020467CBD04020020044AB2F90020026097
:1039F0000348B0F90000086070470000440200204E
:103A00004602002038B5002469460094FEF766FAA5
:103A10000099814200DD0C1A204638BDB0F9003013
:103A2000B1F90020934200DA0280B0F90230B1F916
:103A30000220934200DA4280B0F90430B1F9042048
:103A4000934200DD8280B0F90620B1F906108A4267
:103A500000DDC180704770B5B1F90040B2F90030A7
:103A60009C4200DD23460380B1F90250B2F90240C6
:103A7000A54200DD2C464480B1F90460B2F904503F
:103A8000AE4200DA35468580B1F90610B2F906205B
:103A9000914200DB1146C1809D4201DBA14201DA67
:103AA000002070BD012070BD014602480068407CC6
:103AB00000F002B8040200202DE9F8430126044674
:103AC0008946022857DADFF8B480080008F10405B7
:103AD00030D0012802D002294DD116E055F824003B
:103AE00088B92046FEF72CF8009010B3C0680D216D
:103AF000426A6846904702003DD049460098904788
:103B000055F824000026401C33E02046FEF718F844
:103B1000009070B1C0680D21426A68469047040069
:103B200029D0D8F8000000B1804749460098A04746
:103B3000002620E055F82400012813D12046FDF787
:103B4000FFFF009070B1C0680D21426A684690473F
:103B5000070007D0D8F8000000B180474946009818
:103B6000B847002655F8240008B1012100E00021E3
:103B7000401A45F824003046BDE8F883E4020020EE
:103B800070B5FF23B3EB116F2CD0C3B213FB02F55A
:103B900000F47F4400F47F0354435343000E10FBB2
:103BA00002F6C2F1FF00CAB212FB005201F47F45D7
:103BB00005FB004401F47F0505FB0033090E11FBF2
:103BC0000065C2F307204FF47F024FF47F4102EA01
:103BD000132201EA14214FF07F43084303EA05430F
:103BE0001043184370BD2DE9F04F0646DDE90CB9CE
:103BF00015460C4600208046584519D20B9F4FF0C1
:103C0000FF0A01CE08CCAAEB106202FB09F2B2FB5C
:103C1000FAF1CAB21946FFF7B3FF20F07F4001C5A1
:103C20007F1EEED1099804EB800408F10100E2E761
:103C3000BDE8F08F02494A69426048617047000060
:103C4000F801002010B502E000F8011B521E0AB175
:103C50008307F9D1930818D001EB014402F0030265
:103C600004EB042406E010C01B1F10C040F8084BF2
:103C700040F8044C042BF6DA01E010C05B1E002B68
:103C8000FBD102E000F8011B521E002AFAD110BD40
:103C900010B5830702D520F8021B521E530811D01D
:103CA00001EB0144042B09DB10C01B1F10C0042BC7
:103CB00040F8084B40F8044CF6DA01E010C05B1EF7
:103CC000002BFBD1D20700D0018010BD00F5806031
:103CD000AFF3008010B50023C0F30B00B0F5006F08
:103CE00002DD0123A0F50060B0F5806F01DDC0F5B5
:103CF000006081110C4C00F03F00C0F1400234F82C
:103D000011005043402A08D0102906DA04EB410183
:103D1000C2F14002498801FB020020308009002BDB
:103D200000D0404210BD0000D4910F087047000041
:103D300010B50DF0A3F90548012102685161006832
:103D4000C16841F00101C16010BD0000141E0020D7
:103D50002DE9F041044600680569224F69074FF0DC
:103D600004060BD54661E06B40F00200E06384F886
:103D70002560A06B0765A06B00F019F9A8070DD5A9
:103D8000216802204861E06B40F00100E06384F8A4
:103D90002560A06B0765A06B00F009F9E80605D562
:103DA000216810204861204600F059F8280705D501
:103DB000216808204861204600F0C6F8E8070FD0C7
:103DC00020680168890703D5C16821F01E01C16020
:103DD0002068C16821F00101C1602046FFF7A8FFFB
:103DE000BDE8F081F506000810B5040003D094F892
:103DF000250010B104E0012010BD204600F030F88D
:103E0000022084F825002068016840F6F87291438A
:103E10000160616960680843D4E9031211430843F3
:103E2000A1680843A1690843216A084321680A6818
:103E3000104308606068102805D1E17FE06961F3F4
:103E40001F60216888612068C16841F01E01C1605F
:103E50000020E063012084F82500002010BD704799
:103E6000334800B5016887B041F001010160006886
:103E700000F0010005902E48001F016841F001018B
:103E80000160016801F001010591016841F0020142
:103E90000160016801F002010591016841F004012F
:103EA0000160016801F004010591016841F0080119
:103EB0000160016801F008010591016841F080018D
:103EC00001600068694600F0800005904020009085
:103ED0000220019001200290032003900D20049005
:103EE000144800F0B7F94FF460700090694612482A
:103EF00000F0B0F94FF43C60009069460F4800F0C4
:103F0000A9F90820009069460D4800F0A3F94FF484
:103F10008070009069460B4800F09CF90022114621
:103F20004E2000F04DFB4E2000F03EFB07B000BDE0
:103F30003438024000000240000402400008024001
:103F4000000C0240001C024070472DE9F04104467D
:103F500080680025069E80280ED094F83400012841
:103F60000FD0012084F8340094F8350001280AD0DD
:103F700002252846BDE8F0814FF480706065012578
:103F8000F7E70220F6E7022084F83500206807688A
:103F900047F4802707602068036133462046FCF71A
:103FA000CDFC2068016841F001010160E1E790F873
:103FB0003510022903D08021416501207047052179
:103FC00080F835100068016821F0010101600020CF
:103FD000704770B5040025D094F83500022820D031
:103FE0002068016821F0010101602068002505605A
:103FF00020684560206885602068C560206805618C
:104000002168212048612046FCF75AFC94F85C2086
:104010003F2191408160656584F8355084F83450C3
:10402000002070BD012070BD2DE9F041044600F074
:1040300001FA06465CB1002584F83450022084F869
:1040400035002068016821F0010101600DE00120C8
:10405000BDE8F08100F0EEF9801B052805D920208D
:104060006065032084F83500F2E720680068C00727
:10407000F0D12268116820480140D4E901031843B7
:10408000D4E903363343184363691843A3691843DB
:10409000E3691843236A18430843616A042903D17A
:1040A000D4E90B1319430843106020684069666A1D
:1040B00020F0070130460E43012704280CD1A06AE6
:1040C0000643E06A40B12046FCF70EFC20B14020D8
:1040D000606584F83570BAE7206846612046FCF7D1
:1040E000EFFB94F85C203F2191408160656584F886
:1040F00035700020ACE700003F8010F070B504463A
:1041000090F83400002501280CD0012084F83400F8
:1041100094F835600020012E06D084F83400022582
:10412000284670BD022070BD022684F835606065A7
:104130002046FCF712FC2068016841F00101016093
:10414000EEE7000070B5044600F074F90546601C07
:1041500002D004480078044400F06CF9401BA042EF
:10416000FAD370BD600000202DE9F0474FF480685D
:104170000024DFF870901C4D01261C4F40450FD1E4
:1041800005200CF0EDFE4146484600F049F90028B4
:1041900020D12878012801D11548067015A01EE00D
:1041A000B0F5007F10D04FF40068404512D10520D3
:1041B0000CF0D6FE4146484600F032F9002809D1FD
:1041C0002878012808D009E02878012801D1114871
:1041D00006703C60BDE8F0870F4806700FA00CF039
:1041E000DFFBF6E7001C02403C00002040000020FE
:1041F000000000204B65792043414D4552415F54FA
:1042000052494747455220707265737365642E0AA0
:104210000000000001000020020000204B65792012
:10422000535749544348494E475F4D4F44452070CA
:104230007265737365642E0A00000000044910B5AE
:104240000A68024202D00860FFF78EFF10BD00002E
:10425000143C01402DE9F84FDFF890B100224FF0F7
:1042600001084FF0030A4FF00F090BF1040E00BFD5
:104270000B6808FA02F42340A3426ED14D68022D68
:1042800001D0122D0ED1D50800EB850CDCF82050A2
:104290005607F70E09FA07F6B5430E69BE402E43DE
:1042A000CCF82060066855000F790AFA05FC07F083
:1042B000030726EA0C06AF40374307604E68012E1D
:1042C00005D0022E03D0112E01D0122E0ED18768F8
:1042D000CE6827EA0C07AE403E4386604668A64398
:1042E0000C79C4F30014944034434460C4688E686D
:1042F00024EA0C04AE402643C6604C68E4006FD547
:104300003B4C256845F480452560246822F0030570
:1043100004F480440094374C2E19D6F808489507C9
:104320002F0F09FA07F5AC43334DA84201D1002500
:104330002EE0324DA84201D1012529E0304DA8429E
:1043400001D1022524E02F4DA84201D103251FE011
:104350002D4DA84202D104251AE041E02B4DA84280
:1043600001D1052514E02A4DA84201D106250FE010
:10437000284DA84201D107250AE0274DA84201D1C6
:10438000082505E0254DA84201D1092500E00A25B0
:10439000BD402543C6F80858DBF800405D464E682E
:1043A0009C43F60300D51C432C60DEF800407546A4
:1043B0004E689C43B60300D51C432C600B4D08355A
:1043C0002C684E689C43F60200D51C432C60074DB8
:1043D0000C352C684E689C43B60200D51C432C60FB
:1043E000521C102AFFF444AFBDE8F88F003C014096
:1043F0004438024000300140000002400004024006
:1044000000080240000C024000100240001402406C
:1044100000180240001C024000200240002402401C
:104420000069084000D0012070470AB181617047DF
:104430000904FBE701488068704700006000002025
:1044400070B5040011D021684CF6CC40086021689A
:1044500045F255500860D4E9000141602168A06828
:104460008860FFF7E7FF054609E0012070BD00BF47
:10447000FFF7E0FF401B302801D9032070BD206802
:10448000C0680028F4D121684AF6AA2008600020FC
:1044900070BD00684AF6AA21016000207047000044
:1044A00002488168027811448160704760000020F2
:1044B0000B4810B5016841F400710160016841F4D6
:1044C00080610160016841F480710160052000F0A5
:1044D00097F80F2000F006F800F024F8002010BD37
:1044E000003C024070B50D4D04464FF47A712878B7
:1044F000B1FBF0F00A490968B1FBF0F001F051F9A5
:1045000048B9102C07D200222146501E00F058F85E
:1045100000206C6070BD012070BD000060000020B4
:104520006C0000201F4808B5016841F4804101601B
:10453000006800F4804000901A48001F016841F0B4
:1045400080510160006800F080500090032000F06E
:1045500057F8002211466FF00B0000F031F80022EE
:1045600011466FF00A0000F02BF8002211466FF0A0
:10457000090000F025F800221146501F00F020F835
:1045800000221146101F00F01BF800221146901E59
:1045900000F016F80022BDE808401146501E00F059
:1045A0000FB800004438024000F01F020121914082
:1045B0004009800000F1E020C0F8001170470000C1
:1045C000F0B40E4B1B680C46C3F30223C3F107057E
:1045D000042D00D90425191D072901D2002300E06C
:1045E000DB1E012606FA05F1491E214099409E4036
:1045F000761E16403143F0BC02F0FEBF0CED00E029
:10460000064900F0070208684FF6FF03184040EA29
:104610000220034A10430860704700000CED00E0E0
:104620000000FA050068416200207047F0B500689C
:104630000023446A31B1856A4FF4827604EB154455
:104640004D1E0AE044EA024181620FE006EB830757
:10465000C7595B1C04EB1744DBB2AB42F6DB4FF4EB
:10466000807303EB810144EA024242500020F0BD16
:10467000D0F8EC0306F039BEC1EBC10200EB8202B8
:10468000D0F8EC03526C06F0A6BDC1EBC10200EB02
:104690008202D0F8EC03D2F8042206F0F1BDD0F883
:1046A000EC0306F024BE10B504460A460B0601F0E2
:1046B0007F00C0EBC00104EB810101D5383101E07E
:1046C00001F5FC710870D009487094F8B80301280E
:1046D00009D0012084F8B803206807F04DF90020C4
:1046E00084F8B80310BD022010BD70B50A46044618
:1046F000090602F07F0005D5C0EBC00104EB810183
:10470000383105E0C2EBC20104EB810101F5FC7117
:1047100000258D700870D009487094F8B8030128FE
:1047200009D0012084F8B803206807F006FB84F85C
:10473000B853002070BD022070BD01F00F01C1EB25
:10474000C10100EB8100B0F8100280B2704770B573
:1047500004460D460E0601F07F00C0EBC00104EBDD
:10476000810101D5383101E001F5FC71ED090870D6
:104770004D708A60CB7000D0C8800025022B00D11C
:104780000D7194F8B803012809D0012084F8B8030A
:10479000206807F045F8284684F8B85370BD022019
:1047A00070BD70B50C4601F07F05C5EBC50100EB8F
:1047B0008101C1F80C32C1F804220023C1F8103283
:1047C00081F8F93181F8F851036901F5FC71012B89
:1047D00000D10A616206027C006803D007F00EFB7C
:1047E000002070BD07F0EAF9FAE770B50D460446FF
:1047F000090605F07F0005D5C0EBC00104EB81017F
:10480000383105E0C5EBC50104EB810101F5FC7110
:1048100001228A700870E809487094F8B8030128EA
:1048200007D084F8B823206807F0B9FA680602D0E8
:1048300007E0022070BD217C04F56F72206807F04C
:104840005DFA002084F8B80370BD70B50C4601F025
:104850007F05C5EBC50100EB8101CB644A640023F1
:104860000B65012381F8393001F8385F0369012BAA
:1048700000D10A616206027C006803D007F0BEFA2C
:10488000002070BD07F09AF9FAE700002DE9F84F13
:10489000044600680026054607F004FC002875D190
:1048A000206807F028FC002870D0206807F023FC5F
:1048B000800704D52068416901F002014161206848
:1048C00007F019FC010304F56F704FF0010B4FF076
:1048D000000A00904DD5206807F0EFFB074646E040
:1048E000F80742D0F1B2206807F0FDFB8046C00710
:1048F00028D005EB4612C2F808BB2069012811D167
:10490000C6EBC60004EB8001D2F8102BD1F80002F0
:10491000C2F31202821AC1F81022D1F80422104404
:10492000C1F80402F1B22046FFF7AFFE206901286A
:1049300008D13EB9D4F80C0220B920680121009AB0
:1049400007F0DCF95FEA087007D5204600F002FBAB
:1049500005EB46110820C1F8080B5FEAC86004D5D2
:1049600005EB46111020C1F8080B7F08761C002FBC
:10497000B6D1206807F0BFFB40034FF040095ED579
:10498000206807F093FB0746002656E0D2E1F807BF
:1049900051D0F1B2206807F097FB8046C00724D0C1
:1049A000D5F834280BFA06F08243C5F8342805EB15
:1049B0004610C0F808B92069012807D1C6EBC60027
:1049C00004EB8000D0E9101211444164F1B220469A
:1049D000FFF752FE2069012807D136B9E06C20B9F3
:1049E00020680121009A07F089F95FEA087004D570
:1049F00005EB46110820C1F808095FEAC86004D534
:104A000005EB46111020C1F808095FEA486003D59C
:104A100005EB4611C1F808995FEA887004D505EBEB
:104A200046110220C1F808095FEA086003D5314643
:104A3000204603F0E6F87F08761C002FA7D12068F7
:104A400007F059FB00280DDAD5F8040820F0010022
:104A5000C5F80408204600F063FA2168486900F0B0
:104A600000404861206807F046FB00050BD5D5F8EB
:104A70000808C00702D0204600F088FA2068416983
:104A800001F400614161206807F035FBC0044CD59A
:104A9000D5F8040820F00100C5F8040810212068AA
:104AA00007F0D0FA0020FF2107E000BF05EB40121D
:104AB000C2F80819C2F8081B401C62688242F5D887
:104AC0004FF0FF30C5F81808D5F81C0840F0011069
:104AD000C5F81C08206B60B1D5F8840840F00B00C5
:104AE000C5F88408D5F8440840F00B00C5F8440820
:104AF0000BE0D5F8140840F00B00C5F81408D5F801
:104B0000100840F00B00C5F81008D5F8000820F494
:104B1000FE60C5F80008217C2068009A07F0EEF8D6
:104B20002168486900F480504861206807F0E3FA82
:104B300080047DD5206806F0B3FE2068C16821F4AA
:104B40007051C160206807F08FFA78B10320C4F873
:104B50001490E06000F002FB7749784A01449142EA
:104B60000AD22068C16841F4705158E04FF40070D7
:104B7000C4F80CA0606136E07149724A0144914268
:104B800004D22068C16841F4605148E06E496F4A20
:104B90000144914204D22068C16841F450513EE082
:104BA0006B496C4A0144914204D22068C16841F4C7
:104BB000405134E06849694A0144914204D2206876
:104BC000C16841F430512AE06549664A0144914286
:104BD00004D22068C16841F4205120E062494218A3
:104BE00062498A4204D22068C16841F4105116E03B
:104BF0005F49604A0144914204D22068C16841F48F
:104C000000510CE05C4908445C4988422068C16856
:104C100003D241F4E05102E00AE041F4C051C16026
:104C2000204600F06DF92068416901F400514161AE
:104C3000206807F060FAC00636D52168886920F040
:104C400010008861D5F8208008F00F00C0EBC0008C
:104C500004EB8007C8F3434007F5FC77022802D035
:104C6000062812D01BE047F6F07018EA000F16D0A5
:104C7000C8F30A1290462846F96807F040FAF86827
:104C80004044F860B869404408E00822284600998A
:104C900007F035FAB969C8F30A100844B86120680A
:104CA000816941F010018161206807F024FA000752
:104CB00007D5204600F038F92068416901F0080165
:104CC0004161206807F017FAC00208D5F1B220460A
:104CD00000F056F82068416901F4801141612068B4
:104CE00007F009FA800208D5F1B2204600F04CF82E
:104CF0002068416901F400114161206807F0FBF967
:104D0000400007D52046FFF7B3FC2068416901F059
:104D100080414161206807F0EEF940070AD520681C
:104D20004568680702D52046FFF7B9FC206841684E
:104D300029434160BDE8F88F405327FF00350C0040
:104D4000401E1BFF40420F0000DC0BFF804F120093
:104D5000808CF9FE20D6130060B6E5FE60E31600F5
:104D600000D3CEFE40771B00C05BB3FEC091210094
:104D700000CA91FE20753800E05459FEE09C4100C5
:104D8000D0F8EC0306F014BBD0F8EC0306F012BB2D
:104D9000F0B58BB004004FF0000556D0032084F826
:104DA000B903204600F054F8206806F001FF04F132
:104DB000100128220F466846FBF745FA94E80F00D9
:104DC00006F088FD0021206807F0A9F901260020DF
:104DD000C5EBC50104EB810181F8396001F8385F4A
:104DE000CD80C8708860C8606D1C48610F2DEFD3FE
:104DF00000214FF4827300BFC1EBC10204EB8202B9
:104E000003EB810582F8F90182F8F811D18782F865
:104E1000FB01C2F80002C2F80402C2F80C022268C8
:104E20005051491C0F29E7D3282239466846FBF721
:104E30000AFA94E80F0006F01BFE84F8B9632068B4
:104E400006F00AFE00200BB0F0BD0120FBE70000D9
:104E5000F0B50068234987B0884240D1C0140224CD
:104E6000002503260A278DE8F10069461E48FFF752
:104E7000F1F901208DE8F10069461C48FFF7EAF9D5
:104E800010208DE8F10069461948FFF7E3F9282062
:104E90008DE8F10069461748FFF7DCF943F6234037
:104EA0008DE8F10069461448FFF7D4F9134801680A
:104EB00041F000510160016801F000510591016865
:104EC00041F0804101600068002200F080400590C0
:104ED00011464D20FFF774FB4D20FFF765FB07B02F
:104EE000F0BD000000000440002002400008024025
:104EF000001C024000000240000402403038024022
:104F000010B50446C068012100B90021D4F8EC03B3
:104F100006F0A6FAD4F8EC03BDE8104006F06FBA2C
:104F2000D0F8EC0306F08ABAD0F8EC0306F08CBA9D
:104F300010B5044690F8B803012809D0012084F880
:104F4000B803206807F001F9002084F8B80310BD09
:104F5000022010BDD0F8EC2300F56F71104606F06A
:104F600092BA10B5044690F8B80301280CD001207D
:104F700084F8B803206806F063FD206807F04CF859
:104F8000002084F8B80310BD022010BD10B50446FF
:104F9000D0F8EC0306F0C4FA2068D0F8001E41F007
:104FA0000101C0F8001E206A002804D002480168F0
:104FB00041F00601016010BD10ED00E02DE9F8435D
:104FC0001748016841F0805101600068154F00F0FA
:104FD0008050012600903E64FFF72CFA05464FF4FE
:104FE0007A78114C05E000BFFFF724FA401B4045DA
:104FF0000DD86068C003F7D57E64FFF71BFA05463D
:10500000464607E0FFF716FA401BB04202D90320DC
:10501000BDE8F88360688003F4D50020F8E700005D
:105020004038024000000E42007000402DE9F04779
:105030000E46050065D0DFF81481D8F80000F7B2FD
:1050400000F00F00B04207D288F80070D8F80000D6
:1050500000F00F00B04254D128683D4C810712D5B2
:10506000400703D5206840F4E0502060287800070E
:1050700003D5206840F4604020602068A96820F0D3
:10508000F000084320602878C0072DD030496868B8
:105090000839012812D0022813D0032811D009683A
:1050A000890700292DDA216821F0030101432160DD
:1050B000FFF7C0F9814641F2883A0EE0096889039A
:1050C000EFE709688901ECE7FFF7B4F9A0EB090104
:1050D000514502D90320BDE8F0872068696800F0D7
:1050E0000C00B0EB810FEFD1D8F80010404601F072
:1050F0000F01B14207D90770006800F00F00B042FD
:1051000001D00120E7E72878400705D52068E96845
:1051100020F4E050084320602878000706D5206876
:10512000296920F4604040EAC100206000F03CF8AA
:105130002168084AC1F30311515CC8400649086060
:105140000F20FFF7CFF90020C5E70000003C024028
:1051500008380240F4340F086C0000200148006851
:10516000704700006C000020044805490068096889
:10517000044AC1F38221515CC84070476C00002092
:105180000838024004350F080448054900680968DA
:10519000044AC1F34231515CC84070476C000020A2
:1051A0000838024004350F08154810B5006810F0A3
:1051B0000C02144813D01449042A0FD0082A0ED127
:1051C0000F4C241F2268236802F03F025B0207D5C0
:1051D0002068C0F38810A0FB010106E0084610BD5E
:1051E0002168C1F38811A1FB00010023FAF7FAFF3F
:1051F0002168C1F30141491C4900B0FBF1F010BD29
:10520000083802400024F40040787D012DE9F84F71
:10521000050076D02878DFF8F8B2BE4CC00749D038
:10522000DBF800105846C1F38101012908D000685D
:10523000C0F3810002280AD1201D0068400206D573
:105240002068800336D568680028E2D032E06868BC
:10525000B0F5803F10D0B0F5A02F206810D020F41A
:1052600080302060206820F4802020606868A0B131
:10527000FFF7E0F806460CE0206840F48030F4E7E1
:1052800040F480202060F7E7FFF7D4F8801B642803
:1052900073D820688003F7D50CE0FFF7CBF80646FB
:1052A00005E000BFFFF7C6F8801B6428F0D820682F
:1052B0008003F7D42878DFF8608280074FF0000978
:1052C0003ED5DBF80010584611F00C0F09D00068ED
:1052D000C0F3810002280BD18D48001F00684002F6
:1052E00006D42068800715D5E868012809D111E0A7
:1052F000E868B8B10120C8F80000FFF79BF806463F
:1053000005E002E1FFF796F8801B0228C0D820686C
:105310008007F7D52068296920F0F80040EAC1002D
:1053200020600DE0C8F80090FFF784F8064604E01E
:10533000FFF780F8801B02281FD820688007F7D469
:105340002878000722D5724E744869696C3671B1AD
:1053500001210160FFF76EF8074604E0FFF76AF8E5
:10536000C01B022809D830688007F7D50EE0C0F8C6
:105370000090FFF75FF8074605E083E0FFF75AF873
:10538000C01B02287ED830688007F7D428784007F1
:1053900068D5DFF87CA100270AF1380ADAF80000A6
:1053A000C0000BD4DAF8001041F08051CAF80010A8
:1053B000DAF80000012700F080500090584E306865
:1053C000C00510D4306840F480703060FFF732F8C8
:1053D000009005E0FFF72EF80099401A022851D8F6
:1053E0003068C005F6D54A4EA868683601280FD047
:1053F0000528306810D020F001003060306820F0BF
:1054000004003060A868B8B1FFF714F800900FE00E
:10541000306840F00100F4E740F004003060F7E746
:10542000FFF708F80099411A41F28830814264D8A8
:1054300030688007F4D50EE0FEF7FCFF009007E02F
:10544000FEF7F8FF0099411A41F28830814254D8A2
:1054500030688007F4D42FB1DAF8001021F08051C1
:10546000CAF80010A869C0B3DBF80010C1F38101CD
:1054700002294AD00228484607D0C8F86000FEF743
:10548000D9FF00E039E005463AE04746C8F8600039
:10549000FEF7D0FF064604E0FEF7CCFF801B022893
:1054A0002BD820688001F7D4D5E907010843A96A01
:1054B0001C4A490802EB01416A6A41EA8211084329
:1054C00095F82C1040EA01611148001F016001208D
:1054D0003866FEF7AFFF054605E014E0FEF7AAFFC9
:1054E000401B022809D820688001F7D50BE000BFD7
:1054F000FEF7A0FF401B022802D90320BDE8F88F69
:1055000020688001F4D40020F8E70120F6E70000CD
:10551000083802400038024000004742800E4742EF
:10552000007000400000FFFF70B50D46040003D07E
:1055300094F82C0010B107E0012070BD002084F821
:105540002D00204600F012F8022084F82C00211DC6
:105550002068FBF7FDFAD4E900022946FBF74AFB75
:10556000012084F82C00002070BD0000F0B5364802
:1055700087B0016841F001010160006800F001009E
:10558000059031480838016841F004010160016864
:1055900001F004010591016841F008010160016812
:1055A00001F008010591016841F0100101600168F6
:1055B00001F010010591016841F0200101600168CE
:1055C00001F020010591016841F04001016001688E
:1055D00001F040010591016841F08001016000681F
:1055E0000C240225012603278DE8F00000F080003E
:1055F000CDE9044069461548FEF72CFE20200494AE
:105600008DE8E10069461248FEF724FE4CF2037073
:10561000009069460F48FEF71DFE4FF6837000901C
:1056200069460D48FEF716FE4FF63F0000906946AA
:105630000A48FEF70FFE48F2371000906946084806
:10564000FEF708FE07B0F0BD3838024000080240FF
:10565000001C0240000C02400010024000140240F6
:105660000018024010B5044690F82C00022809D01A
:10567000022084F82C002068FBF792FA012084F8BD
:105680002C00002010BD000070B5044690F82C00DE
:105690000D4602280DD0022084F82C002068FBF76C
:1056A00085FA2868022805D05FF0010084F82C00F4
:1056B000002070BD0520F9E770B515460E460400C0
:1056C00003D094F8490010B107E0012070BD00201C
:1056D00084F84800204600F01BF804F10801206817
:1056E000FBF7D2F93146A2682068FBF703FAD4E948
:1056F00001022946236BFBF7A7F9A168206850F83F
:10570000212042F0010240F82120002070BD00005D
:105710001A4800B5016887B041F0010101600068D6
:1057200000F00100059015480838016841F00801B3
:105730000160016801F008010591016841F0100164
:1057400001600068694600F0100005904EF2B370E9
:1057500000900220019001200290032003900C2071
:1057600004900748FEF776FD4FF68070009069467A
:105770000448FEF76FFD07B000BD00003838024056
:10578000000C0240001002404FF0E021042808699C
:1057900003D020F004000861704740F00400FAE7ED
:1057A000704710B5401EB0F1807F01D3012010BDBD
:1057B0004FF0E02460610F21601701F01DFF002011
:1057C000A06107202061002010BD10B5FFF7E8FFA1
:1057D00010BD30B590F83820012A20D0012280F881
:1057E0003820022380F8393003685C6824F07004A4
:1057F0005C6003685C680D682C435C6003689C68AF
:1058000024F080049C6003689C6849680C439C6099
:1058100080F83920002180F83810084630BD022079
:1058200030BD10B5040003D094F8390010B107E082
:10583000012010BD002084F83800204600F00CF84C
:10584000022084F83900211D206804F023FE012085
:1058500084F83900002010BD704770B5044690F8F8
:1058600038000D4601280DD0012684F8386002204A
:1058700084F8390042B1042A18D0082A2AD00C2A08
:105880004DD139E0022070BD206804F079FE206817
:10589000816941F0080181612068816921F004017A
:1058A0008161206881692A69114311E0206804F050
:1058B00093FE2068816941F40061816120688169FB
:1058C00021F480618161206881692A6941EA0221AD
:1058D000816124E0206804F0B1FE2068C16941F0D4
:1058E0000801C1612068C16921F00401C16120681B
:1058F000C1692A69114311E0206804F0CFFE2068D5
:10590000C16941F40061C1612068C16921F480610D
:10591000C1612068C1692A6941EA0221C16184F834
:105920003960002084F8380070BD10B5040003D041
:1059300094F8390010B107E0012010BD002084F870
:105940003800204600F00CF8022084F83900211DB0
:10595000206804F09FFD012084F83900002010BD6C
:105960007047000010B504460068012204F0F2FD03
:1059700008492068884202D00749884203D1416C17
:1059800041F4004141642068016841F00101016077
:10599000002010BD000001400004014010B5044685
:1059A0000068002204F0D6FD114841F2111221686E
:1059B0009310814202D00F48814209D1086A1042F7
:1059C00006D1086A184203D1486C20F400404864AC
:1059D0002068016A114206D1016A194203D10168A7
:1059E00021F001010160012084F83900002010BD80
:1059F000000001400004014070B5044690F83800F2
:105A0000012818D0012584F83850022084F8390084
:105A1000204604F06BFE2068C16821F04001C1609F
:105A20002068C16821F48041C16084F839500020A9
:105A300084F8380070BD022070BD704770B50268F0
:105A400004461068D168536910F00F0F50D003F06E
:105A5000010501F4907635435DD0C20705D0CA0533
:105A600003D5E26B42F00102E263420705D5DA0793
:105A700003D0E26B42F00202E263820705D5DA0747
:105A800003D0E26B42F00402E263020705D5DA07B5
:105A900003D0E26B42F00802E263E26B002A33D0EB
:105AA000800604D5880602D5204604F0AFFE2068A3
:105AB0004069E16BC0F38010090700D428B3204689
:105AC00004F096FE2068416949061AD5416921F023
:105AD00040014161606BA0B11B490165606BFEF73D
