:020000040800F2
:1000000010CB0220C1010008778900085170000858
:10001000758900086F05000801D60008000000007F
:1000200000000000000000000000000061930008D4
:10003000CB08000800000000C3900008E993000806
:10004000DB010008DB010008DB010008DB01000820
:10005000DB010008DB010008DB010008DB01000810
:10006000D30D0008DB010008DB010008DB010008FC
:10007000DB010008DB010008DB010008DB010008F0
:10008000DB010008DB010008DB010008DB010008E0
:10009000DB010008DB010008DB010008D90D0008C6
:1000A000DB010008DB010008DB010008DB010008C0
:1000B000DB010008DB010008DB010008DB010008B0
:1000C000DB010008DB010008DB010008DB010008A0
:1000D000DB010008E5C00008DB010008DB010008C7
:1000E000BD0D0008DB010008DB010008DB01000892
:1000F000DB010008DB010008DB010008DB01000870
:10010000DB010008DB010008DB010008DB0100085F
:10011000DB01000889BC0008DB010008DB010008E6
:10012000DB01000891070008DB010008DB01000883
:10013000DB010008DB010008DB010008DB0100082F
:10014000DB010008DB010008DB01000899890008D9
:10015000DB010008DB010008DB010008DB0100080F
:10016000DB010008DB010008DB010008DB010008FF
:10017000DB010008DB01000809070008000000009F
:10018000DB010008DB010008DB010008DB010008DF
:10019000DB010008DB010008DB010008DB010008CF
:1001A000DB010008DB010008DB010008DFF80CD0F0
:1001B00000F0A0F9004800477D3F010810CB022065
:1001C0000648804706480047FEE7FEE7FEE7FEE7F1
:1001D000FEE7FEE7FEE7FEE7FEE7FEE7F99300082D
:1001E000AD0100082DE9F05F0546002092469B46D0
:1001F00088460646814640241BE02846414647463D
:10020000224600F009F953465A46C01A914110D3CC
:1002100011461846224600F0F0F82D1A67EB010847
:100220004F4622460120002100F0E7F817EB0009B5
:100230004E41201EA4F10104DFDC484631462A4627
:100240004346BDE8F09F10B5431A934209D2831884
:10025000881803E010F8011D03F8011D521EF9D2A1
:1002600010BD40EA01039B0703D009E008C9121F33
:1002700008C0042AFAD203E011F8013B00F8013B60
:10028000521EF9D210BDD2B201E000F8012B491E76
:10029000FBD270470022F6E710B513460A46044623
:1002A0001946FFF7F0FF204610BD421C10F8011B55
:1002B0000029FBD1801A7047034611F8012B00F882
:1002C000012B002AF9D1184670472DE9FE4F81EA2B
:1002D000030404F0004421F0004100944FF0000BAF
:1002E00023F0004350EA01045ED052EA03045BD0DD
:1002F000C3F30A54C1F30A552C44A4F2F334019415
:10030000A0FB0254C1F3130141F48011C3F31303A2
:1003100043F4801301FB024400FB034E840A970A56
:1003200044EA815447EA8357A4FB076802958D0A83
:1003300005FB07854FEA932C04FB0C542705029D0F
:100340004FEA065847EA1637B5EB08056EEB070C7F
:10035000870E920E47EA811742EA8312A7FB020139
:10036000B6EB0B0164EB00042B0D43EA0C335E1873
:1003700044EB1C50DA465146E7FB0201C5F3130477
:100380004FEA0B3343EA14534FEA0432019C43EA29
:100390000603A4F10C040294009CCDE900B400F023
:1003A0005AF803B0BDE8F08F00200146F9E70EB51A
:1003B00040F2334102910021CDE900110A460B467B
:1003C00000F049F803B000BDC1F30A5210B5C1F303
:1003D000130140F2FF3341F480119A4201DA002008
:1003E00010BD40F233439A42A2F2334203DC524240
:1003F00000F012F810BD904010BD202A04DB203A16
:1004000000FA02F1002070479140C2F1200320FA67
:1004100003F3194390407047202A04DB203A21FA65
:1004200002F00021704721FA02F3D040C2F120020D
:10043000914008431946704710B5141E73F100042B
:1004400008DA401C41F1000192185B411A4301D1C6
:1004500020F0010010BD2DE9F04D92469B4611B1F0
:10046000B1FA81F202E0B0FA80F220329046FFF752
:10047000C4FF04460F4640EA0A0041EA0B01534616
:100480005A46084313D0114653EA010019D0C8F167
:1004900040025046FFF7C0FF05460E4650465946FB
:1004A0004246FFF7AAFF084305D0012004E020469A
:1004B0003946BDE8F08D0020054346EAE0762C433E
:1004C00037430A986305E40AA0EB08000022FD0AFE
:1004D00044EA47540A3002D500200146E9E7010505
:1004E00010196941DDE9084500196941BDE8F04D81
:1004F000A2E70000064C074D06E0E06840F001036B
:1005000094E8070098471034AC42F6D3FFF752FE48
:10051000603104088031040870B58C1810F8015B54
:1005200015F0070301D110F8013B2A1106D110F88C
:10053000012B03E010F8016B01F8016B5B1EF9D190
:100540002B0705D40023521E0DD401F8013BFAE716
:1005500010F8013BCB1A921C03E013F8015B01F881
:10056000015B521EF9D5A142D8D3002070BDFEE731
:1005700000207047002070470B4810B5D0F81812C3
:100580000A4A00200B5C1354401CC0B24028F9D327
:1005900007A013F0E5F841F28833402203490B48E5
:1005A00006F0F7FC002010BDF0040020040D002030
:1005B0006869642055534220726563656976656495
:1005C000206D6573736167652E0A0000BCB9022057
:1005D0001CB50DF0F3FC0346002000900190034A87
:1005E0000321034801F030FF1CBD0000F137010872
:1005F000F84801081CB50DF0E1FC0346002000900E
:100600000190034A0221034801F01EFF1CBD0000B7
:100610006538010860A103081CB50DF0CFFC034646
:10062000002000900190034A0221034801F00CFFD2
:100630001CBD0000AD38010898A1030810B5806BFF
:10064000816B496D022902D0012180F8251004F048
:10065000FCFC10BD2DE9F8438046274816460F469E
:1006600008990268002542F4800202600068234C69
:1006700000F480000090A4F140008463A06320484F
:1006800020604FF00070C4E901054013E560C4E943
:1006900004100011C4E906304002206204206062A8
:1006A0000120C4E90A052046256304F020FE204607
:1006B00004F048FE134984F83450A7B13B46424643
:1006C0002046009604F0CFFD2068016841F010013B
:1006D000016000221146392005F0F0F8BDE8F8432A
:1006E000392005F0DFB801B033464246BDE8F0439B
:1006F000024804F091BE000030380240840F002010
:100700002864024028000550014804F0AFBC0000F6
:10071000440F002007480649016000212022C0E95B
:100720000112C16001614161816104F0EBBC000014
:1007300000000550440F002010B50021084607F0C6
:1007400021FD07F013FE06480068016841F0010131
:1007500001600448016841F00101016010BD000022
:10076000840F002000000550074810B5016821F0F3
:10077000010101600A2013F0FFFA044800680168D3
:1007800021F00101016010BD00000550840F002020
:1007900030B419481A4C1A490068184D184B603C7F
:1007A000B839A84202D9154A543A03E0984203D90D
:1007B000124A583A126804E0A04201D94A6800E09F
:1007C0000A6812F4006F15D04FF40062A84202D9F3
:1007D0000A484C3803E0984203D908485038026070
:1007E00004E0A04201D9CA6000E08A6005480068C0
:1007F00030BC004730BC7047840F00205864024072
:10080000B86002401801002001681823CAB2103AEB
:10081000B2FBF3F2054B6FF30901032A9B5CC3653E
:1008200000D9091D8165084670470000D0A1030862
:1008300010B5014600208B698A6A4FF0C07453B12D
:10084000B3F5005F15D072B1012A0CD0022A0AD08C
:10085000032A09D104E01AB1012A06D0022A03D1E1
:10086000C96AC90100D5012010BDC96AA142FAD0E8
:1008700010BD002AF7D0012AF2D0022AF3D0032AB1
:10088000F3D010BD10B5046863608368402B036823
:1008900003D099600068C26010BD9A600068C160B2
:1008A00010BD30B50468256825F4802525600468EE
:1008B00063608368402B036803D099600068C2605E
:1008C00030BD9A600068C16030BD70472DE9FC47BB
:1008D0000E465FEA00097FD002F0A6FA484601F012
:1008E000C3FC009090F85470D0F85880456BC46CED
:1008F000684601F01BFDB8F1000F04D031464846B0
:100900004246904761E0122E18D006DC082E43D0F4
:10091000102E3CD0112E06D112E0132E21D01D2E08
:1009200043D01E2E3DD0202E4FDB17B148460FF08E
:100930005AF8B1B2484611F019FB60B3611C27E0C8
:100940004DB3284601F090FC05462146019003F086
:1009500073F94419204603F01DF90146234601228C
:1009600010E0C5B1284601F07FFC05462146019004
:1009700003F062F94419204603F00CF901462346BE
:100980004FF0FF3248460EF069FE01A81BE0611EE1
:10099000484600F0E9F918E0BCB1611E484600F095
:1009A000E3F948460FF01FF80FE0484601F05CFC01
:1009B0000090012F12D0012180F8541021464846A2
:1009C00000F0D2F9684601F0B1FC48460DF084FC15
:1009D00000E001E003F042FABDE8FC87002180F866
:1009E0005410EFE7FEB54468054620460EF076FA4F
:1009F0000646294620460CF004FE002837D0286819
:100A00000F2830D004DC0B2832D00E2853D13AE026
:100A1000A0F58070133804D0A0F580702D384AD12D
:100A200010E020460DF0C6FD2046002111F0E0FD4B
:100A3000204601F019FC0190C06F00210DF0A0FDCF
:100A400001A81DE0E86860B1017A29B1016820467B
:100A500000F0AEF8012100E0022120460DF0EDFC8F
:100A600029E00321F9E70121204611F0C1FDFEBD77
:100A7000204601F0F9FB0090343001F057FB684646
:100A800001F054FC17E0B6B1E8684168002912DDB6
:100A900001681B290FD006DC09290CD00A290AD0CD
:100AA0000D2904D107E0212905D0222903D02046B1
:100AB000FFF70CFFFEBD28460DF032F9FEBDF0B584
:100AC00087B004460DF1080CD4E90567B0F9085069
:100AD000408A8CE8E1000020CDE90010B4F90C0058
:100AE000B4F91060C118B4F90A00B4F90E501044FA
:100AF00033462A4600F008F8050002D0618A00F06B
:100B00001EF907B02846F0BD2DE9F04F85B01F460D
:100B1000DDE91254DDE90E6A90468946834602F00B
:100B200083F90DF1040C4AF480501F4958340096A3
:100B30008CE813003B464246494658460DF038F8CB
:100B400004002AD001F090FB1022049011990CF0BF
:100B5000D1FE04981C2215496030FFF774FB049AFB
:100B6000012082F85500681C00D0012082F8800026
:100B7000002D00DC08252DB215870020508750631A
:100B800004A86D1C01F0D2FB2946204611F0ADF8F7
:100B900018B920460DF0FCF8002403F05FF905B009
:100BA0002046BDE8F08F0000E50900089002002013
:100BB0002DE9F04186B00C46060055D002F034F91C
:100BC000304601F051FB0090406B98B301F04CFBB4
:100BD00003900098806E02F069FE804630460DF06A
:100BE00083FA0746039802F07CF80546009890F8CF
:100BF000601001F00301012916D002290DD0416EC9
:100C0000C06A00680844241A641E039803F0D8FFE1
:100C10000146002C0FDA002115E0781B401C00EB88
:100C2000D070A4EB6004F0E7406E791B081A241A18
:100C3000641CEAE713E0AC4205DC02462146039857
:100C400003F068FF0146304600F08EF803A801F07B
:100C50006DFB404602F02AFE30460DF03DFB684633
:100C600001F064FB03F0FAF806B0BDE8F0812DE96D
:100C7000FC4788465FEA00094FF0000652D002F0B8
:100C8000D3F8484601F0F0FA0090B0F93850446BC0
:100C9000684601F04BFB0027B8F1000F44D04CB17F
:100CA000204601F0E1FA0190FFF7FFFA461C01A887
:100CB00001F03CFB404603F083FF0446A84200DD00
:100CC0002C462146404602F0B7FF451CA91B48466A
:100CD00011F0E8F908B3484601F0C6FA0090406BFD
:100CE00001F0C2FA2A4641460190FFF7ACFA01989A
:100CF000284400F8017C0098C464B0F938108C4294
:100D000005D190F85410012901D1641EC46401A8D2
:100D100001F00CFB684601F009FB48460DF0DCFAD7
:100D200003F09CF8BDE8FC87484601F09DFA00906E
:100D3000343001F0FBF900984787C764EAE738B51B
:100D40000C4605000FD002F06FF8284601F08CFA2F
:100D5000009018B1046628460DF0BEFA684601F00E
:100D6000E5FA03F07BF838BD1CB50C4601F07CFABF
:100D70000090406BF0B101F077FA019003F020FF92
:100D8000009991F8542002B10122002C00DA0024CD
:100D9000844200DD0446B1F93800801AA04200DA2E
:100DA0000446C86CA04200D0CC640020086501A8AD
:100DB00001F0BCFA684601F0B9FA1CBD10B54FF459
:100DC000806004F0E9FBBDE810404FF4006004F0DF
:100DD000E3BB042004F0E0BB4FF4007004F0DCBB84
:100DE00070B5B3F5804F05D06FF0704140F8221018
:100DF000002070BD50F82240084B8E891C40D1E97C
:100E0000003543EA05138D6889692D0245EA0645D8
:100E10002B430B43234340F82230E9E70000F0CF97
:100E2000F0B50C6850F82430174A1340D1E9012579
:100E3000D1E903672A433E4332434E6932438E6908
:100E40003243CE6932430E6A32434E6A32438E6A6F
:100E50003243CE6A3243CE6B32430E6B32434E6B1B
:100E600032431A43082D01D142F0400240F82420B9
:100E70004A6BB2F5801F05D1096819B1016841F4C8
:100E8000801101600020F0BD8000E0FFF0B500EBB4
:100E90008204626802F04045D1E9002342EA03126D
:100EA0008B688E891B0243EA06431A430E8A0D4B58
:100EB00003EB065632430E7D5F0107EB06663243B5
:100EC0008E6932432A4362600268D20207D54268C3
:100ED000098A22F4700203EB0151114341600020A2
:100EE000F0BD00000000F0FF30B5D1E901231A4346
:100EF000D1E903352B431A434B690C681A438B69BC
:100F00001A43D1E90735012C496A046807D01A430E
:100F10002A436FF30E040A43224302600AE024F4DA
:100F2000F8442B4321430B43416803606FF30E01E8
:100F30000A434260002030BD426942EA41014161FA
:100F400000207047F8B514460546D1E90002104369
:100F50008A686FF01F03C96803EB421242EA41211D
:100F600008430090286104F013FC064609E0601C69
:100F700007D024B104F00CFC801BA04201D903204F
:100F8000F8BDA8698006F2D40020F8BDF0B56FF076
:100F90000F05D1E9003405EB04145B1E23432E0139
:100FA0008C682F0306EB042423434FEA054C0C8A7C
:100FB0008E8ACD68097E4FF07F4E07EB04440CEB20
:100FC00006560EEB0161012A0CD082683F1107EB37
:100FD00005352B432343334302F070420B43134345
:100FE00083600FE08768084A17402A03A2F5805201
:100FF0003243C5683A43234305F070450B432B4306
:101000008260C3600020F0BDFF0F0FFF2DE9F047A5
:10101000044640688EB00027804601F025F9009014
:10102000B0F87CA0D0F86890D0F88060D0F88850F4
:10103000C06D00B10768684601F078F905E069689D
:1010400020468847002843D12D68002DF7D120681D
:10105000172853D00CDC0F283DD004DC0B2877D0A8
:101060000D2825D18BE0112810D0142820D13BE089
:10107000262846D004DC1E2851D0202818D18AE02A
:101080002A2816D0B0F5107F12D128E04046E56836
:1010900001F0EAF80290697A39B9297A012904D174
:1010A00030F87C1F41F48071018002A801F03EF904
:1010B00075E0404601F0D8F80090E16811B1C0F841
:1010C000841002E0D0F88400E060684601F02EF958
:1010D0000EB0BDE8F087D7B34046B8475FE0214681
:1010E000404611F04DFAF3E705A9404600F0B3FB86
:1010F000E0680699016007994160E9E7C4F80C903F
:10110000E6E7E0680228E3D1CDF83080E0680D9092
:1011100027200A900AA9A0680EF078F8D8E7E068BE
:10112000012804D00021404600F0BBFAD0E7304649
:101130000DF03BF968B130460DF00AFB30460DF07A
:1011400011F898B1012130460CF0EFFA0EE026E0DC
:101150002FE048460DF050FB0646404601F084F86B
:101160000090C0F88060684601F0E0F80121404638
:1011700000F097FA002EABD10020E060A8E75FEA0C
:101180000A700CD4E068C06848B1007A38B14046B3
:101190000DF0DEFA03E02146404611F04FF92146FA
:1011A00040460CF02EFA002892D020460CF0B8FDF4
:1011B0008EE7404601F058F80090703000F0B6FF1E
:1011C000684673E7F0B587B0B0F908400DF10C0C34
:1011D0000C9E876945688CE8F000448A0025CDE9BB
:1011E00000150294B0F90C10B0F91050B0F90E408F
:1011F000B0F90A00194410442B46224600F002F8C8
:1012000007B0F0BD2DE9F04F8BB09846DDE91556DB
:1012100091468A468346149F1A9C01F005FE334886
:10122000603445F48055CDE90204CDE900754346AC
:101230004A46514658460CF0BBFC04004FD001F022
:1012400013F83022049017990CF054FB04982822CC
:1012500027493430FEF7F7FF04981999244F416667
:10126000A0F87C600026C0F88060C666083FC0F821
:1012700088607968C16504A801F058F805A920467E
:1012800000F0E9FA1B4841F2827103960094CDE91F
:101290000110BDF91E00BDF91A10BDF91C20431A3A
:1012A000BDF918005B1C121A521C0CF081FC06469A
:1012B0007868416820468847204600F0D5FF0490B2
:1012C000866604A801F032F842F20400054202D119
:1012D00020460CF0D5FD2046189900F027FA02F0C0
:1012E000BDFD0BB02046BDE8F08F00000D100008DA
:1012F000B40200205D1B00082DE9F041044694B0C3
:10130000006800F0B7F908B1D94D01E0D84D2C358F
:10131000606815281ED00CDC0B281FD004DC0028C8
:101320007ED005287DD12FE10E287BD01228F9D15F
:1013300041E1162806D0172808D0182808D01C2804
:10134000F0D109E0E86914B0BDE8F081286AFAE755
:10135000686AF8E7A86AF6E76869F4E720680B901E
:101360001C200C90206800F07FFF0390016D0BA8FB
:101370008847064603A800F0D9FF022E0FDB95E848
:1013800007008DE80700D4E904023346A16903F0A1
:101390008FFA20698719A069A0EB06082CE028685D
:1013A00002F067FA2169E8690A18521E606901F0C3
:1013B0001DFBA269E869111A491C606901F016FB5E
:1013C000D4E904077F1C394601F03CFB3946A0698B
:1013D00001F038FB686802F04CFA20693946401C7D
:1013E00001F030FBA0693946401E01F02BFBA069DB
:1013F0002769A0F10208BF1C286802F03AFA4246A9
:101400003946606901F0F2FA686802F032FA606900
:1014100042463946401C01F0E9FA686A022802E0B7
:1014200015E1B0E000E10BDDA86802F022FA616985
:101430006A6A881C8B180146424638465B1E27E0C4
:10144000296AB14226DD6069022E074600F10208D2
:1014500001DB374401E007F10207206901DB30447A
:1014600001E000F1020022693B460A444146A2F134
:10147000010201F097FB022E02DBA069821B01E052
:10148000A269921EA069E9693B46401A4146401C88
:1014900001F088FB022E02DB6069064401E0666908
:1014A000B61CE76928687F1E02F0E3F93A46314628
:1014B000206901F02DFB3A463146A06901F028FB76
:1014C000E7696868BF1E02F0D4F920693A463146E0
:1014D000401C01F01DFBA0693A463146401E01F058
:1014E00017FBE869022802DC286A022823DDA86AC3
:1014F000022802DDE1690F1A01E0E769BF1EA86852
:1015000002F0B7F9E969022909DD20693B46421872
:1015100000F1020C31466046521E01F043FB286A7E
:10152000022808DDA269E8693B46101A3146401CD2
:10153000921E01F037FB286802F09BF9D4E90620DF
:10154000216901F053FA686802F093F9D4E90620A2
:101550002169401E491C521E01F048FAA86A02285F
:1015600011DDA1692669E469A1F10208271AA41E08
:10157000B61C7F1CA86802F07CF923464246394617
:10158000304601F00FFB71E0208A00B2ADF8140084
:10159000A18A09B2ADF81610228B12B2ADF818204C
:1015A000A38B1BB2ADF81A302C69ED68CDE900545D
:1015B00001F0E0F95AE0208A298B0844ADF81400C4
:1015C000A08AADF81600208B298B401AADF81800C0
:1015D000A08BADF81A00206800F046FE0390006F63
:1015E000F0B1022002F0BEF9039890F87C10C1F32C
:1015F000C00100EB8100006C02F03BF90398406BE6
:1016000002F054F90398006F00F02EFE0399099040
:10161000B1F95A2005A901F0C7F809A800F086FE23
:1016200003A800F083FE21E0208AADF81400A08A10
:10163000ADF81600208BADF81800A08BADF81A009D
:10164000A86802F016F905A801F0D8FA0EE02068A3
:1016500000F00AFE039030F85A1F41F00C0101809F
:1016600003A800F063FE20680DF0F8F800206AE699
:10167000DC03002038B505004FF000040FD001F066
:10168000D3FB284600F0F0FD009090F87C000007A6
:1016900000D50124684600F049FE02F0DFFB204639
:1016A00038BD70B50D46040009D001F0BDFB2946D8
:1016B000204611F02DFABDE8704002F0CFBB70BD9E
:1016C0002DE9FC410D46804601F0AEFB5FEA0800C3
:1016D00028D000F0C9FD0190C16D8C6800F022F99E
:1016E00007460198456301A800F020FE2268012109
:1016F00040469047064622680321404690470546EB
:1017000022680021404690470446404600F0EFF929
:101710002B46324639464046009400F078F9404660
:101720000CF0DAFD02F09AFBBDE8FC817CB50D46B9
:1017300004001DD001F078FB204600F095FD0090DC
:10174000006F0190684600F0F1FD294601A803F002
:101750008DFB58B1204600F087FD0090019901678C
:10176000684600F0E3FD20460CF0B6FD02F076FB83
:101770007CBD38B50C46050013D001F055FB28465A
:1017800000F072FD0090B0F95A10A14204D0A0F808
:101790005A4028460CF0A0FD684600F0C7FD02F054
:1017A0005DFB38BD38B50C46050015D001F03CFB9B
:1017B000284600F059FD0022CDF8000000EB820120
:1017C000521C0C64022AF9D3684600F0AFFD28468B
:1017D0000CF082FD02F042FB38BD2DE9FC470D46BE
:1017E0005FEA00094FF0000432D001F01DFB4846CB
:1017F00000F03AFD0190B0F95440A54223D000F02A
:1018000091F8804601980121A0F85450C06D856878
:1018100048462A68904707462A6803214846904769
:1018200006462A680021484690470546484600F08B
:101830005EF933463A4641464846009500F0E7F8DF
:1018400048460CF049FD01A800F070FD02F006FBCF
:101850002046BDE8FC872DE9F34F85B000270C46F4
:10186000B846059800F000FD0090C06D0121856824
:1018700005982A68904782462A6803210598904770
:1018800004902A6802210598904703902A68002155
:1018900005989047064600980DF09EF983460098FB
:1018A0000DF0A1F98146009890F83210890601D513
:1018B000B0F9588000F036F805460098C06E10B1B7
:1018C0000CF029FC074625806780A4F804A0049A40
:1018D000ABEB020006EB0802401E2A4420813A448A
:1018E000E280039BA9EB0302521E6281A4F80CA0C4
:1018F00020827019E681401E6082684600F016FD65
:10190000B4F90C000190B4F91000029002AA01A9E8
:10191000059800F039F80198A0810298208207B05C
:10192000BDE8F08F10B50146002091F832209206F4
:1019300007D5B1F95400002803D1486B01F0FCF938
:10194000801C10BD70B58AB00C46054600F08CFCBA
:101950000990C06D866809A800F0E8FC009534B1D4
:10196000012C06D0022C0BD0032C04D10AE0182045
:1019700000E0162001907168684688470AB070BD83
:101980001520F7E71720F5E72DE9FC4117468846B3
:10199000044600F069FC0090C16D056868468E68D9
:1019A00000F0C4FC326800212046904706462046DD
:1019B0000CF021FB27E000BF00F056FC0190B0F9CD
:1019C00000102AB2B0F90430891A9A1AB0F902301C
:1019D000A3EB2543B34210D190F82800000605D5AB
:1019E0003868884209DB491E396006E0D8F80000F3
:1019F000904202DC521CC8F8002001A800F096FCBE
:101A000020460CF033FB0400D6D1BDE8FC812DE963
:101A1000FF4F83B00E460746DDF8409000F024FCEF
:101A20000190C16D8D68FFF77DFF044601A800F0AD
:101A30007DFC2A6801213846904783462A680321A5
:101A40003846904782462A68002138469047054626
:101A5000B44207D105998B4504D106998A4501D135
:101A60004D4541D0A41B0026B04638460CF0C3FAC1
:101A700038E000F0F9FB0090806A010601D580058E
:101A800002E0810528D50006002825DB24B1224686
:101A9000114638460CF0FAFC009890F82800000631
:101AA0000AD50698A5EB0902A0EB0A0004FB160173
:101AB0003846761C0CF0B2FC0098008D80050BD5E2
:101AC0000599A5EB0902ABEB010004FB080108F145
:101AD000010838460CF0A2FC684600F027FC3846A6
:101AE0000CF0C4FA0700C4D107B0BDE8F08F70B5A0
:101AF00086B0064600F0B8FB0590D0E91A4505A867
:101B000000F014FC54EA050026D069463046FFF781
:101B1000A2FEACB1BDF90620BDF9041020460CF0C0
:101B200050FCBDF90A00BDF90610421ABDF90800C3
:101B3000BDF90410521C411A2046491C0CF0B2FE9B
:101B4000002D09D0BDF90600BDF90210421ABDF9F9
:101B5000041028460CF035FC06B070BD2DE9F043AA
:101B60000446406889B005460CF08DFA814600F0C5
:101B70007BFB0290D0F84880D0F88070466E02A8B7
:101B800000F0D4FB2068172853D008DC0E283AD088
:101B90000F2811D014284CD015283DD149E01E281B
:101BA0001ED01F282AD0222840D0312834D100202E
:101BB000E06009B0BDE8F0836FF0704140468845B1
:101BC00003D006F095FA00F0F3FB002EF1D0D4E933
:101BD00002122068CDE90405CDE9061204A81FE031
:101BE000E0680028E5D02FB1AF4203D038460CF0B2
:101BF000AFFDDEE728460CF0FFFDDAE72146484658
:101C00000BF0FFFCD5E7E0684168002904DD0068BF
:101C10000928EFD00A2805D05EB12046C4F8049008
:101C2000B047C6E728460CF0F6FDC2E7C4F80C80C2
:101C3000BFE720460CF074F8BBE700002DE9F04345
:101C40000446C56887B090468946002001F022FE10
:101C5000064625B1287910B146F0020001E026F0D1
:101C6000020001F017FE2069012558B1D4E90212E3
:101C70008DE826000395638822880468414648461B
:101C8000A0471EE0124F134B214638681B68427C68
:101C9000E068984730B9E088012801D0002001E0D1
:101CA0003868806BA288E388A1680095CDE90410AC
:101CB000CDE902320195638822884146484605F005
:101CC000F3FB07B03046BDE8F04301F0E3BD000090
:101CD000140200200C02002010B5002001F0BEFD0F
:101CE0006FF07F4001F0C5FD012001F01DFE0020D6
:101CF00001F028FE002001F035FE002001F0CAFDB1
:101D00000448006801F0D2FDBDE81040002001F059
:101D1000DDBD0000100200202DE9F04FDFF828B1F2
:101D200091B04FF0FF35DBF80030B3F92210069187
:101D3000DE69B3F92490F469A189814206D8E28969
:101D4000824203D3471AD4F8008012E0D4E901811B
:101D500000296FD00A8882426CD84D88854269D3A9
:101D6000801A82B2486800EB8200B0F90070B0F9C6
:101D70000250781C5ED0307EA17C10FB01FA217CE1
:101D8000CDE90701B3F92A60304606F07DFAC0B20A
:101D90000E90DBF8000007FB0A81A37C826B012711
:101DA000CDE90412CDE90273C069089AC17E807E34
:101DB000CDE90001DDE90603494605F075FB681C25
:101DC00018D046F0020006F05FFADBF80000A37CB2
:101DD00005FB0A81826BCDE90273CDE90412C0696B
:101DE000089AC17E807ECDE90001DDE906034946FF
:101DF00005F05AFBDBF800005D46C069417E007EBD
:101E0000814214D9022E12D086F0040006F03CFA6A
:101E10002868C069027EC37E12FB0391437E857EE3
:101E2000089A06984B4412FB050205F073FD0E98C4
:101E300006F02AFADBF80000627C418C11444184F0
:101E400011B0BDE8F08F00001402002004480068C3
:101E5000C069C06909B1027C0A60407C704700001B
:101E600014020020022008807047C06982898A42DB
:101E700002D8C2898A4210D2806880B102888A4220
:101E80000DD843888B420AD3406800EB8100A0EB59
:101E90008200B0F90000002801DB0120704700201B
:101EA000704700002DE9F043304C034687B02068AE
:101EB0001946B0F92A60C069C06900F086F80028A8
:101EC00050D041680088181A01EBC0053046AF7841
:101ED00006F0DAF9814620686A680123816BCDE952
:101EE0000237CDE90421C169CB7E8A7ECDE900238A
:101EF0000B7EB0F924102A78B0F9220005F0D4FA4C
:101F00002068C069417E027E91421FD9C07E11FBCC
:101F100000F812FB00F7022E18D000F0BAFE0646B9
:101F200000F080FE01F0A5FC21682A78CB69B1F9A8
:101F30002200DB7E12FB0302B1F9241001EB08033F
:101F4000394405F0E7FC304601F093FC484606F0C2
:101F50009BF920686A78C369B0F922109B7E12FB56
:101F60000311418407B0BDE8F08300001402002093
:101F700030B50F4C05460B4620682946C069C0693C
:101F800000F023F8002812D04168008824682A1A3B
:101F90000120E46900EBC200085CA47E10FB04F0A1
:101FA000002B04D011F8321011FB04F1196030BD80
:101FB0001402002001200880704700B5C06900F0BD
:101FC00004F8002800D0012000BD06E002888A4203
:101FD00002D842888A4202D280680028F6D170472F
:101FE00070B50025124C19E020691249C5EB0516A1
:101FF00000EBC60070220968001DFEF724F9206975
:10200000002140F8361000EBC60000F10C018161A0
:10201000011D0A1DC0E90F126D1C4164A0688542B4
:10202000E2DB00F001FFBDE8704001F017BF0000E7
:10203000800300201402002070B50F490D4808608D
:10204000084602F00BFF0C4C143CA068C0EB0010DB
:10205000C500284600F078F82A460021206102F0E9
:1020600076FF4FF0FF30206001F037FFBDE8704091
:102070000FF0A0BD312501089403002010B5040025
:1020800009D000F0D1FE20460DF0AEF9044601F073
:10209000E5FE204610BD002010BD38B5054600F015
:1020A000C3FE2846FFF7EAFF040009D000F0DCF881
:1020B0002A460021009002F04AFF684600F036F9F7
:1020C00001F0CCFE204638BD024A106021F003002A
:1020D000506070479CBD022010B5040016D000F07F
:1020E000A3FE0B48406B10F8341059B1022909D2F5
:1020F000042101EBC401415848680DF02DF9204638
:1021000010F05AFCBDE8104001F0A8BE10BD000060
:10211000DCBC0220002805D0034AD16B016001B16C
:102120004860D06370470000DCBC022010B5044654
:1021300000F07AFE2068FFF7CFFF00202060BDE8A6
:10214000104001F08BBE00002DE9F04104460FF075
:10215000B9FE2848E41C24F00305016C2D1DA9429A
:1021600000D90D46C46B13E054F8042CAA420ED1DA
:1021700084B1216809B162684A60616809B1226866
:102180000A60C26BA24231D12168C1632EE024688B
:10219000002CE9D18046816BC0680F1857F8040CF9
:1021A0003E1A306838B1002010F062FC57F8040C79
:1021B0003E1A3068D0B97068A84217DB3044441B1F
:1021C0003046241D10F00CFCD8F80C10491BC8F840
:1021D0000C10D8F814102944C8F814107068401B6B
:1021E00002D031460DF0B8F844F8045C2046BDE852
:1021F000F0810000DCBC022010B500240FF062FE6C
:102200000C490F2001EBC002526C1AB101EBC00067
:10221000406C08E0401EF5D508E04168A14200D9B5
:102220000C46806810B180680028F6D1A4F10C003B
:1022300010BD0000DCBC0220034800680C380028F8
:1022400000DC002070470000DCBC0220002138B117
:102250000449042202EBC000496B085841680C395C
:1022600008467047DCBC02200549CA69521CCA6195
:10227000496B01EBC0010A78521C0A7000F06EB87D
:10228000DCBC02207CB506460C460846FFF7F6FE8D
:10229000050020D0FEB13046FFF7D8FFA04200DA9B
:1022A000044600F0C1FD2846FFF7DEFF00903046EF
:1022B000FFF7DAFF0146019022460098FDF7C3FFC1
:1022C000684600F033F801A800F030F83046FFF718
:1022D00003FF01F0C3FD28467CBD000010B500F0EF
:1022E000A3FDFFF789FF64220849B0F5800F04D9E8
:1022F00090FBF2F4086A444303E0096A4143B1FBEE
:10230000F2F401F0ABFD204610BD0000DCBC022061
:102310000549102805D94A68B0EB520F02D350087E
:1023200000E01020886070479CBD02200A490268C6
:102330004B6B52F8082C03EBC2021378022B03D329
:10234000CB690BB15B1ECB611178491E1170002166
:102350000160084670470000DCBC0220002806D05F
:102360000349042202EBC000496B0858083070474B
:10237000DCBC022010B5C2B2CBB2D21A00D5524298
:1023800093B25B43C0F30722C1F30724121B00D5AD
:102390005242000C92B2A0EB114002FB023200B29A
:1023A000002801DA404200B280B200FB002010BDDC
:1023B00010B50021084600F0D5FC43F6FF725042EC
:1023C000BDE8104013460146AFF300802DE9FC4103
:1023D0001C4615460E46074600F026FD042005F073
:1023E00053FF80461248C068C16C006D0F4406441C
:1023F0000D440444ADF80070ADF80450ADF802602F
:10240000ADF8064068460CF0F5FB07E023462A4687
:102410003146384605F07EFA0CF0A0FB0028F5D1D5
:10242000404605F031FF01F019FDBDE8FC810000D8
:1024300008020020B0F90630B0F90420B0F902100B
:10244000B0F90000FFF7C2BF2DE9F8431C00DDE939
:10245000089816460F46054602D10BF0AFFD04461C
:1024600000962E6843464A4621462846B047060055
:1024700039D00BF098FD8146698A30460BF055F94A
:1024800030460CF043FA48460CF040FA4FF0000892
:102490000CE000BFCDF8008055F81CCF00231A4691
:1024A00049462846E04700B30CF030FA7F1E002F63
:1024B000F0DC1D2148460CF0AEF8601C12D000F094
:1024C000B3FC0BF0A5FD30B1FFF748FF8469B442BF
:1024D00001D02000F8D1B44202D030460CF08CF983
:1024E00001F0BCFC3046BDE8F88330460BF050FCF0
:1024F0000020F8E72DE9F0411C4616460D46074638
:10250000022B02DB0020BDE8F0811C20FFF71CFE3F
:102510000028F8D00DB105610AE0094A52F82410EC
:1025200009B905E011460A68002AFBD10969016171
:1025300084618682002101604160C0E90217E2E700
:102540002C02002070B51D46FFF7D4FF040009D00F
:1025500000F00EF8E068006820B90348006800EB5E
:1025600085008465204670BD14020020FFF7D2BDAF
:1025700070B590B38269022A30DA1E4C54F82210EA
:1025800019B944F8220032E019464B68002BFBD100
:1025900006E0CB68C5681B682D68AB4203DD09689F
:1025A0000029F6D11AE0C1B1CB68C6681B6836684D
:1025B000B3420CD1838A012B05D008E01946DB68B1
:1025C0001B68AB4203DB0B68002BF7D129B14B68CA
:1025D00033B118604A68426004E0FFE7012070BD33
:1025E00044F822004860884200D1002101600020A8
:1025F00070BD00002C02002010B503E00468FFF756
:10260000B7FF20460028F9D110BD10F08DBC0000A6
:102610002DE9F0410026DFF834800D4F354600BF2C
:1026200058F8254009E0E0680068385C20B1204691
:1026300010F07AFC266026462468002CF3D16D1C2D
:10264000022DEDDB3046BDE8F08100002C020020B9
:1026500060B70308022801DB00207047054951F8E4
:10266000200004E0C16809680029F6D0006800284D
:10267000F8D170472C0200202DE9FC4706005FD0FE
:1026800000F0D2FB00F012FB3C4C81462068B0F910
:10269000228000F033FB216807468A8CD01B888497
:1026A00041E000BF47F6FF71304602F06DFA824606
:1026B0000146304602F03EFA2168054691F82C00AA
:1026C00000F00300012841D002283BD000204A8CB2
:1026D000101A4884ADF800006A1E1044ADF80400DA
:1026E000888CADF80200A9F101010844ADF806009C
:1026F0006A465146304601F0C9FD2168BDF8020026
:1027000088845146304601F097FA064430780A280A
:102710001ED00D281CD0BDF8000021682844488434
:10272000307818B1761C30780028BBD12068818CB5
:1027300039448184818D21F00301818501F08EFB74
:10274000BDE8FC8705EBD5704010C0E72846BEE722
:10275000206890F82C1001F0030101290BD0022908
:1027600009D0018C418431780A29D9D1828C02EBBD
:1027700009018184D4E7A0F82280F4E71402002044
:1027800070B514460D46064600F04EFB054800683D
:10279000458484843046FFF76FFFBDE8704001F048
:1027A0005DBB00001402002047F6FF73AFF300800A
:1027B0002DE9FC411F4690460D4606004FF00004EF
:1027C0001AD000F031FB65B128460CF08FF80400F8
:1027D00007D002462946684602F043FA68460CF0E4
:1027E00085F83B4642462946304601F0A7FD204683
:1027F0000CF07CF801F032FBBDE8FC812DE9FF4FC5
:1028000087B09046894607007DD000F00DFBD9F8CF
:102810000040D9F8045021B228B2401A401C02905E
:1028200000F044FA064618F00C0F1ED038460A9AFB
:10283000029901F01DFB08F00C01042904D00829BD
:1028400002D00C2911D104E0291400FB1610401C01
:1028500009E02114C1EB254200FB1620401C00EBCF
:10286000D07001EB600060F31F4448460CF03EF866
:102870005FEA000B09D00246494604A8CDE90445A9
:1028800002F0EFF904A80CF031F8A6F1010A38467D
:102890000A9A029902F02AFB03900AEB244060F3A3
:1028A0001F45CDE900453846039902F043F918F079
:1028B00003010ED001292CD002290ED1B9F9042030
:1028C000B9F90010521A101A00EBD07001EB600039
:1028D00001E0B9F80000ADF800006A4638460399F7
:1028E00001F0D4FC38460A9A029902F0F5FA07443E
:1028F00006EB244060F31F4438780028C7D15846BF
:102900000BF0F4FF00E001E001F0A8FA0BB0BDE825
:10291000F08FB9F80410081A401CDCE77CB51446A7
:102920000D46064600F080FA11480068C16C006D43
:102930000D4404443188681E0844ADF80400ADF825
:1029400000507188601E0844ADF80600ADF80240E2
:1029500068460CF04FF906E0224629463046FFF75C
:102960006DF90CF0FBF80028F6D101F077FA7CBD88
:10297000140200202DE9F04F87B09B46DDE9109846
:1029800092460C46054600F04FFA16480168C86C9E
:10299000096D47190E1900EB0A0501EB0B04ADF8A0
:1029A0001070ADF81450ADF81260ADF8164004A8E0
:1029B0000CF020F988B1DFF830B04FF0010ACDE912
:1029C0000098CDE902BA23462A46314638460EF031
:1029D000A5F90CF0C3F80028F1D101F03FFA07B0D7
:1029E000BDE8F08F14020020AD7600082DE9FC410F
:1029F00014460D46064600F017FA114F3968C86CA8
:102A0000096D054404440E44ADF80050ADF804408F
:102A1000ADF80260ADF8066068460CF0EBF808E02F
:102A2000386822463146406E0368284698470CF0C5
:102A300095F80028F4D101F011FABDE8FC810000FE
:102A4000140200207CB50C46064600F0EDF90F4D4F
:102A50002868C16C006D0E440444ADF80460ADF804
:102A60000060ADF80640ADF8024068460CF0C2F8D0
:102A700007E028682146406E4268304690470CF0D7
:102A80006DF80028F5D101F0E9F97CBD14020020B1
:102A90002DE9FC411C4616460D46074600F0C4F9D8
:102AA0001A480168087ECA6C096D17440D440C442D
:102AB000401E391A1644ADF800103118ADF8041054
:102AC000291A2044ADF80600ADF8021068460CF053
:102AD00091F815E032462946384604F0E7FD3246C3
:102AE0002146384604F0E2FD621E691C384604F0B7
:102AF0003DFE621E691C304604F038FE0CF02EF8D4
:102B00000028E7D101F0AAF9BDE8FC8114020020F9
:102B10007CB514460D46064600F086F90F4800685D
:102B2000C16C006D0E4405440444ADF80060ADF87E
:102B30000460ADF80250ADF8064068460CF05AF853
:102B400006E022462946304604F010FE0CF006F856
:102B50000028F6D101F082F97CBD000014020020AB
:102B600010B5002400E0012400F004F80028FAD198
:102B7000204610BD094810B50068002410B18047F8
:102B800000B101240BF08EF900B101240448006863
:102B900010B1804700B10124204610BD380200204A
:102BA000340200202DE9FC411C4615460E4607461E
:102BB00000F03AF910480068C16C006D0F440644FB
:102BC0000D440444ADF80070ADF80450ADF8026057
:102BD000ADF8064068460CF00DF807E023462A469B
:102BE0003146384604F096FE0BF0B8FF0028F5D1C8
:102BF00001F034F9BDE8FC8114020020B0F9063080
:102C0000B0F90420B0F90210B0F90000FFF7CABF14
:102C1000034951F82000C1688A6A08211047000062
:102C20002C02002010B500F0FFF804F0A3FE04F021
:102C30003DFF044601F012F9204610BD10B50446D0
:102C400000F0F2F8054800210068C069426820469B
:102C50009047044601F002F9204610BD14020020FE
:102C600070B50C46054600F0DFF8064821460068BE
:102C7000C069426828469047044601F0EFF82046B4
:102C800070BD000014020020002801D00BF068B9CC
:102C9000704710B500F0C8F804F074FE04F006FFA9
:102CA000044601F0DBF8204610BD000010B500F02E
:102CB000BBF804480068C069447E01F0CFF82046A4
:102CC00010BD00001402002070B50C46054600F04F
:102CD000ABF82146284601F081FFBDE8704001F0C5
:102CE000BDB810B5044601F06BFF01462046BDE8B3
:102CF000104001F01FBF01F0E9B8000010B500243A
:102D000000F092F80B48006890F82C1001F00C01CC
:102D1000042904D0082906D00C2907D103E0C06992
:102D2000047E641E02E0C069007E440801F096F84B
:102D3000204610BD14020020017EC07E11FB00F071
:102D400070470000024951F8200000690068704790
:102D50002C020020024951F82000006940687047A9
:102D60002C02002070B50D46044600F05DF82046A8
:102D70000EF09AFF044628460EF09EFF044301F031
:102D80006DF8204670BD000010B501F0AFF90A499A
:102D90002E20087001F0A0F808480FF045F804F064
:102DA000C1FE04460021084600F09EFD0BF0EAF942
:102DB000FFF716F9204610BD08020020A8BD02202A
:102DC0002DE9FC411C4615460E46074600F02CF83E
:102DD000012000F05FFD804612480068C16C006D64
:102DE0000F4406440D440444ADF80070ADF804509F
:102DF000ADF80260ADF8064068460BF0FBFE07E058
:102E000023462A463146384604F084FD0BF0A6FEE0
:102E10000028F5D1404600F03DFD01F01FF8BDE867
:102E2000FC8100001402002070B5184CE06820B14D
:102E300001F049F86168884204D001F04FF801F0D0
:102E400042F86060E068401CE06001281CD10EF090
:102E5000B1FE05462068854216D0002813DBFFF737
:102E6000D7FB01462068C0EB0012206900EBC202CC
:102E70005167C5EB0511064A00EBC100011D116049
:102E8000406FFFF7B9FB256070BD00008003002094
:102E9000140200201CB5040004D10E480068046E22
:102EA000002C16D0FFF7C0FF2046FFF7DDF9009099
:102EB00044696846FFF73AFA4CB12046FFF7D4F967
:102EC000019081688968884701A8FFF72FFA00F010
:102ED000C5FF1CBD1402002001490A4600F002B8DB
:102EE00001F0FFFF2DE9F04387B015460C465FEA7D
:102EF000000846D0FFF798FF002000F0CBFC814689
:102F000021480068066E4046FFF7AEF90090006861
:102F1000806900F087FC074640F6FF70C44204D188
:102F20000098B0F90440B0F906500098611E02897B
:102F3000ADF804401144ADF808104189681E0844FA
:102F4000ADF80650ADF80A000AF0DAFD6846FFF762
:102F5000EDF901A80BF04EFE06E02A462146404658
:102F600000F082FB0BF0FAFD0028F6D1384600F0A5
:102F700059FC304600F08AF9484600F08BFC00F01E
:102F80006DFF07B0BDE8F083140200202DE9FE4F6D
:102F9000984691468A46834600270C9EFFF744FFD9
:102FA000184819490068407C51F82040E1680968D8
:102FB000042903D02468002CF8D100E01CB9FFF7E5
:102FC00049FB04001BD0E0680121C26A20469047FB
:102FD000050011D02469A0688047401C02D10B4C29
:102FE00046F001060096CDE9015443464A46514653
:102FF000584600F0DFF9074600F030FF3846BDE8DC
:10300000FE8F0000140200202C020020502804082B
:1030100038B504001CD0FFF707FF0E480068006EAB
:10302000A04201D100F0F0FB2046FFF71DF900900F
:10303000406908B100F0FBFE00980068FFF796FABF
:103040006846FFF773F92046FFF746F800F006FFE1
:1030500038BD0000140200202DE9FF4FDFF8389141
:10306000074683B0D9F800009A468B46447C4B480B
:1030700000570128204606DD04F0E2FC0546204604
:1030800004F0EAFC05E004F0C9FC0546204604F023
:10309000CBFC04461FB302A901A8FFF715FEB7F940
:1030A0000000002800DA0020B7F902608046002EF8
:1030B00000DA002601984119B7F90400491E0FF003
:1030C00066F8054602980119B7F90600491E0FF087
:1030D0005EF8A5EB0802841B521C641C03E04FF051
:1030E000000846462A46BAF1000F01D1C4F1000A91
:1030F000002A4FDD002C4DDD1098009053463146DC
:103100004046FFF743FF5FEA000A10D000F078F86E
:103110000746A04206D0D9F80000806C10B13221D9
:103120000CF092F8504600F0B1F8002521E0594625
:1031300005988847012007B0BDE8F08F611BB942B0
:1031400002DA504600F086F83DB172194146504609
:1031500000F0C4F85046FFF79DFE59460598884791
:103160000F48016809B1002088475046FFF7B4FEB8
:103170003D44A542E2DB5046FFF74AFF002000F045
:1031800085F8A74206D0D9F80000806C10B1332131
:103190000CF05AF80020CEE7140200204C02002068
:1031A000C003002038B505004FF0000411D0FFF730
:1031B0003BFE2846FFF758F80090006800698068D9
:1031C000804705F077FA04466846FFF7AFF800F04D
:1031D00045FE204638BD38B504000ED0FFF724FE6A
:1031E0002046FFF741F800F1180400906846FFF709
:1031F0009DF800F033FE204638BD002038BD0000A9
:1032000038B504460025FFF70FFE1CB908480068D2
:10321000046E44B12046FFF727F80090B0F90A5039
:103220006846FFF783F800F019FE284638BD000015
:103230001402002070B50546002428460CF026FB39
:10324000641C18B1BDE8704000F07AB8052CF4DBBE
:1032500070BD000038B50C46050004D10A4800686E
:10326000056E002D0FD0FFF7DFFD2846FEF7FCFFAF
:103270000090B0F90A10A14200DD44816846FFF7D2
:1032800055F800F0EBFD38BD14020020F8B50546F6
:10329000FFF7CAFD104E3068046ECDB10CB100F0DE
:1032A000B3FA0AF02DFD2846FEF7DEFF00903168E4
:1032B0000D660068FFF75CF96846FFF737F805F020
:1032C0002BF804F03FFF00BF00F0C8FD2046F8BD1A
:1032D00000F09AFAF8E70000140200207CB51546C9
:1032E0000E46040004D115480068046E002C24D05A
:1032F000FFF79AFD2046FEF7B7FF2DB20090C5807C
:1033000034B2848004F01EFF0098406980B1FEF75B
:10331000ABFF009A0190B2F908108180B2F90A203F
:10332000C28011B10AB10480458001A8FEF7FEFFFA
:103330006846FEF7FBFF00F091FD7CBD1402002003
:1033400001490A4600F002B801F0FFFF7FB51546BB
:103350000C4606002DD0FFF767FD3046FEF784FFD0
:1033600040F6FF710190CC4203D1B0F90440B0F9AE
:1033700006500289611E1144ADF80840ADF80C10EA
:103380004189681E0844ADF80E00ADF80A5001A846
:10339000FEF7CCFF02A80BF02DFC06E02A462146E2
:1033A000304600F049F90BF0D9FB0028F6D100F0C7
:1033B00055FD7FBD2DE9FF4FDFF8E8B083B01C4617
:1033C000DBF80010DDE9106092464FF000084B7CFE
:1033D00042461299FFF78EF8050060D02869806890
:1033E000804705F067F981460AFB09F1C91DCF083E
:1033F000FEF774FFF10705D1C11700EB9170801043
:1034000000EB4000002C09DC1FB11838B0FBF7F0CE
:1034100000E000206442A04200DC0446F00707D12F
:103420000090DDE903012346524600F085FC80460A
:10343000002C03DC2846FFF799F830E004FB07F086
:103440001830F10702D0FEF719FE01E0FEF725FE65
:1034500006001CD0FEF708FF0190056003998180EB
:103460000499C180A0F808A04481C0F81480C0E984
:10347000037901A8FEF75AFF1298AE602861DBF8C5
:103480000000407CA861304607B0BDE8F08F2846B8
:10349000FFF76CF85FEA080001D0FEF71DFE002080
:1034A000F2E70000140200202DE9F74F8EB0144619
:1034B00089460E98FEF7D8FE0990B0F908B0B0F929
:1034C0000A600068006940680C9009A8FEF72EFFAA
:1034D000564D574F2868407C57F82000C1688A6ACB
:1034E000082190470790182801D3202007902868CA
:1034F000407C57F820000069069003C80B904D48A7
:10350000814201D0012000E000200A90002000F05C
:10351000E7FC00287DD1286809EB0B01B0F90C20ED
:10352000891A491E002902DDABEB010500E05D466A
:10353000B0F90810494505DDA1EB090189446D1A70
:10354000089101E000210891002D6BDDB0F90E20FB
:10355000A119891A491E002902DDA6EB010800E025
:10356000B046B0F90A00A04204DD061B3444A8EBC3
:10357000060800E00026B8F1000F53DD089801901E
:103580000DA95F46DDF830A00E980091FFF723FEED
:10359000774300EB870101982B4601EB80020099ED
:1035A0004846CDE900A1214600F06AFF00900028BE
:1035B00038D00A98E8B1DDE906322946009800F0D3
:1035C0008FFDB0B90698009FDA46D0F810C0BCF164
:1035D000000F05D004235A4639463846E04708E034
:1035E0000B993868884701C7AAF101005FEA000A11
:1035F000F6D100990020079ACDE90301059001203A
:103600000090CDE9010221460346641C2A46484643
:1036100000E007E003F048FFA8F10100761C5FEA34
:103620000008ABD111B0BDE8F08F000014020020FB
:103630002C020020F77A0008F8B515460E4607461A
:10364000FEF712FE009000681621C068426A002052
:10365000904704466846FEF769FE002C03D02A46D0
:1036600031463846A047F8BDF8B516460F46050066
:1036700012D0FEF7F9FD009044696846FEF756FE49
:103680002846FFF78FFD0346082800DD2CB132469F
:10369000394628460FF07CFCF8BD324639462846AC
:1036A0000FF016FEF8BD10B5002821D009B30AB3FB
:1036B000B1F90040B2F900309C4200DA23460380A1
:1036C000B1F90240B2F902309C4200DA234643804D
:1036D000B1F90440B2F904309C4200DD23468380F6
:1036E000B1F90610B2F90620914200DC1146C18002
:1036F00010BD11460A6802604968416010BD00288B
:103700000BD003880B44038083881944818041884F
:1037100011444180C1881144C180704770B50025B3
:10372000FFF782FB094CD4E9002082420AD0D2E99B
:10373000005610460EF0D6FA2060314628460AF0B0
:1037400085FE012500F08AFB284670BD700300202D
:103750002DE9FC41154DDDE908742D68B5F90860C7
:10376000864200DD3046B5F90C60964200DA3246FA
:10377000824219DBB5F90A608E4200DD3146B5F9A7
:103780000E509D4200DA2B468B420DDB00E02C46AA
:10379000E5682D6825B1042D02D02568002DF6D1ED
:1037A000CDE9007404F0B4FABDE8FC8114020020F5
:1037B000B0F90220B1F906309A4213DCB1F90220C7
:1037C000B0F906309A420DDCB0F90020B1F90430AE
:1037D0009A4207DCB1F90010B0F90400814201DC23
:1037E000012070470020704701460248702200689F
:1037F000FCF729BD14020020024970220968FCF779
:1038000022BD00001402002010B5FFF70DFB04F0EC
:103810004FFC04F081FD0AF073F9BDE8104000F0A0
:103820001DBB000070B50B4D04462868467CFFF7B1
:10383000FBFA022C09D22046FEF70CFF28B12868BB
:103840004474FFF7E1FF0448046000F007FB3046D2
:1038500070BD000014020020EC02002010B50446E8
:10386000FFF7E2FA204604F043FCBDE8104000F008
:10387000F5BA10B50446FFF7D7FA204604F070FCFD
:10388000BDE8104000F0EABA0149886070470000C6
:103890000802002010B50446FFF7C6FA204604F0DF
:1038A000F3FC044600F0DAFA204610BD70B5044679
:1038B000FFF7BAFA04480068C56904B1C46100F0B2
:1038C000CDFA284670BD00001402002070B50546F0
:1038D000FFF7AAFA03480068847E857600F0BEFAF6
:1038E000204670BD1402002070B50C460546FFF757
:1038F0009BFA094822460580084804800848006869
:10390000417C084850F82100C1680B6A2946984755
:10391000BDE8704000F0A2BA540200205602002018
:10392000140200202C02002070B50546FFF77CFA37
:1039300003480068047E057600F090FA204670BDCA
:103940001402002070B50446FFF76EFA04480068C0
:10395000B0F92C50848500F081FA284670BD000033
:103960001402002070B50446FFF75EFA04480068B0
:10397000B0F92A50448500F071FA284670BD000065
:103980001402002002480068002800D00047704759
:103990009C03002002498A6802B98860FFF7F2BFE1
:1039A0007003002010B504000ED0FFF73DFA20464A
:1039B0000FF030F820460FF08FFA2046FEF78CFB10
:1039C000BDE8104000F04ABA10BD38B50C460500FD
:1039D00011D0FFF729FA2846FEF746FC00908089AF
:1039E000204201D0012400E000246846FEF79EFC3E
:1039F00000F034FA00E00124204638BD38B5040058
:103A000017D0FFF711FA2046FEF72EFC0090FFF7C3
:103A100072F9014600988269114441616846FEF7D7
:103A200085FC20460FF058FA20460EF061FB00F0AE
:103A300015FA38BD38B50C4605000BD0FFF7F4F980
:103A40002846FEF711FC009084616846FEF76EFC84
:103A500000F004FA38BD000038B5054600202860A3
:103A60000648046844B12046FEF7FEFB009000695A
:103A700028606846FEF75AFC204638BD7C040020CA
:103A800038B504004FF000000D46086011D0204604
:103A9000FEF7EAFB0090846844B16846FEF746FCF6
:103AA0002046FEF7E1FB0090006928606846FEF7BB
:103AB0003DFC204638BD00002DE9F84FDFF8988026
:103AC0000546264F98F818008B46410738680A9E2D
:103AD0009946407C924607D403F0B2FF044638680A
:103AE000407C03F0B9FF06E003F0B6FF04463868F7
:103AF000407C03F0A5FF002785B1441EB9EB06000A
:103B000000D54042142806DB5146BBEB0A0000D525
:103B10004042142804DA0120BDE8F88F641EEDE766
:103B20000A464B465946384600960EF025FB0C4F88
:103B30004B46524647F835005946204600960EF04F
:103B40001BFB07EBC50148600FF098F8012100202E
:103B5000C8F81C10E0E70000580200201402002002
:103B600018BE0220014988617047000058020020F9
:103B700070B50C460546FFF757F905482146006821
:103B8000C26828469047044600F068F9204670BD98
:103B90001802002010B50446FFF746F904480068F3
:103BA000016820468847044600F058F9204610BDB9
:103BB0001802002010B50446FFF736F904480068E3
:103BC000416820468847044600F048F9204610BD69
:103BD0001802002001490968896808471802002076
:103BE0002DE9F041084E0446056830680168284612
:103BF000884707463068416828468847284420603F
:103C00003846BDE8F0810000180200202DE9F0419F
:103C100000250E4680462C46064F06E0396808EB24
:103C200004004968884704446D1CA642F6DC284617
:103C3000BDE8F081180200202DE9F0410C4606464F
:103C40000025064F05E0386841683046884706443D
:103C50000544641EF7D22846BDE8F0811802002012
:103C60002DE9F0411E46069C1746884605463A4611
:103C7000A8687F1C3346D0F804C041462846E04778
:103C8000641EF4D1BDE8F08170B5B0F90040091BA5
:103C9000B0F904408C422CDD00F11404B0F902505C
:103CA0000069521B02FB0040CA1800EBE104521EDF
:103CB000D010B0EBE10501F007034FF0FF0102F077
:103CC000070221FA03F0C2F1070201FA02F1CEB2B3
:103CD00021780FD001436D1E04F8011B002D05DD76
:103CE000FF2229462046FCF7CEFA2C4420783043A8
:103CF000207070BD30400143217070BD10B5B0F927
:103D00000030B0F90240C91A00F114030069121B17
:103D100002FB003000EBE10001F007030278802194
:103D2000D9400A43027010BDB0F906100269514330
:103D30001430FCF7AFBA00002DE9F843804602F1D9
:103D40000F000011470003FB07F01C46154689468B
:103D50001430FEF7A2F9060018D0FFF765F83046D8
:103D6000FEF782FA0090A0F80080A0F8029085800B
:103D7000C480074981600121818107616846FEF79F
:103D8000D5FA00F06BF83046BDE8F8830020FBE779
:103D9000DC30040870B5B0F90660B0F904400B6877
:103DA00000F1140596421BDD0069A34202FB00509E
:103DB00000EBE30214DA641EE010A0EBE30512F856
:103DC000010B03F00704A040C4B206E045B108337C
:103DD00012F8014B23F007036D1E002CF6D004E00F
:103DE000002070BD6006040E5B1C2006FAD5FF2C77
:103DF00007D0184602E06406240E401C6606FAD47A
:103E000000E0D81DC443640705D006E012F8014B5A
:103E1000FF2C09D108306D1EF8D5C01A401C0B606C
:103E200070BD6206140E401C2206FAD4F5E738B5C0
:103E30000546FEF7F9FF2846FEF716FA009081893D
:103E4000491E0CB284816846FEF770FA14B9284600
:103E5000FEF742F900F002F838BD00000348C168DF
:103E6000491EC16001D100F03AB8704780030020BC
:103E70002DE9F04116460F4605460024FEF7D4FF13
:103E800032463946284601F027F8054408B1641C3B
:103E9000F6E7FFF7E3FF2046BDE8F08110B54FF4E9
:103EA00000042146012010F08FFA2146FEF70CF99C
:103EB0008020FEF72DFABDE810400148FFF7E4BC72
:103EC00084BE030870470020704700000148006866
:103ED00070470000FC010020704770477047704732
:103EE0000EB508B102AA00E00022002301A968462D
:103EF00000F0BAFD0EBD0000074910B50C7818B1EE
:103F000001200870801E03E0002008706FF07F40E1
:103F100003F016FA204610BD4E0200202DE9F041B4
:103F2000984616460C4688B3FEF7DBFE074608F0B7
:103F30000300012825D0022817D0B4F9005000BF93
:103F4000FEF7B4FE014608F00C0004282BD00C2824
:103F50001DD0B4F9020035807080EA19521E084461
:103F6000B280401EF080BDE8F081B4F90400B4F9DD
:103F70000010401AC01B401C00EBD07001EB600524
:103F8000DEE7B4F90400C51B6D1CD9E710E0B4F9F5
:103F90000600B4F90220801A401A401C00EBD070D1
:103FA00002EB6000D7E7B4F90600401A401CD2E7E4
:103FB0002068306060687060D5E7000010B5082A9E
:103FC0000EDC0346012A18D0022A56D0042A76D0E5
:103FD00010F8042B03F8012B491EF9D1012010BD64
:103FE000102A08DC4FEA000230F8043B22F8023BBA
:103FF000491EF9D1F2E7002010BD10F8042BD207BA
:10400000120E491E34D010F8044B491E04F001046E
:1040100042EA84122CD010F8044B491E04F001042B
:1040200042EA441224D010F8044B491E04F0010463
:1040300042EA04121CD010F8044B491E04F001049B
:1040400042EAC40214D010F8044B491E04F00104E3
:1040500042EA84020CD010F8044B491E04F001041B
:1040600042EA440204D010F8044B04F00104224355
:1040700003F8012B0029C0D1B0E710F8042B9207F8
:10408000120E491E15D010F8044B491E04F003040B
:1040900042EA04120DD010F8044B491E04F0030448
:1040A00042EA840205D010F8044B04F003042243D2
:1040B000491E03F8012B0029DFD18FE7FFE710F835
:1040C000042B1207120E491E05D010F8044B04F001
:1040D0000F042243491E03F8012B0029EFD17DE78D
:1040E00038B50024009400F01DF838BD0B4810B519
:1040F0008169002910D101218161FFF7CFFEFDF711
:104100009BFF04F045F9054905481C310860BDE8EE
:104110001040084600F0A2BE10BD000008020020BA
:10412000D12401082DE9F0410D460699044601B954
:1041300001461F68082A09DC0E46012A1AD0022A05
:104140005BD0042A7DD0082A13D18DE0102A07DC29
:10415000D3F810C00E46BCF1000F04D0022389E052
:104160000020BDE8F08101CCB84726F8020B6D1E97
:10417000F9D189E001CCB847C0074FEA10686D1E3D
:1041800036D001CCB84748EA801000F0FF086D1E19
:104190002ED001CCB84748EA401000F0FF086D1E51
:1041A00026D001CCB84748EA001000F0FF086D1E89
:1041B0001ED001CCB84748EAC00000F0FF086D1ED1
:1041C00016D001CCB84748EA800000F0FF086D1E09
:1041D0000ED001CCB84748EA400000F0FF086D1E41
:1041E00006D001CCB84740EA080000F0FF086D1E79
:1041F00006F8018B002DBDD146E001CCB847800701
:104200004FEA10686D1E16D001CCB84748EA00107E
:1042100000F0FF086D1E0ED001CCB84748EA8000C0
:1042200000F0FF086D1E06D001CCB84740EA080038
:1042300000F0FF086D1E06F8018B002DDDD123E094
:10424000FFE701CCB84700074FEA10686D1E06D0A3
:1042500001CCB84740EA080000F0FF086D1E06F8E0
:10426000018B002DEDD10FE0D3F810C0BCF1000F91
:1042700004D001232A462046E04705E001CCB84798
:1042800006F8010B6D1EF9D101206AE77CB50646E0
:1042900028480D46006868B100200AF0ABFC06E033
:1042A0006A46294630460BF0DFFB0AF057FC00282F
:1042B000F6D17CBD106800901F4C506801902268B8
:1042C000BDF8000032F84C1F0844ADF80000BDF8FE
:1042D000020091880844ADF80200BDF8040011887E
:1042E0000844ADF80400BDF8060091880844ADF814
:1042F000060068460AF07EFC0EE000BF2068BDF8AC
:1043000000106A464184BDF8021081842946304677
:104310000BF0AAFB0AF022FC0028EFD1206830F84D
:10432000221F428D891A01804188C28D891A4180DD
:104330007CBD000050020020140200202DE9FF4F38
:1043400085B09A4690460D46FEF7B0FC4FF0000946
:10435000DDF814B006464C4625B128680090686820
:10436000019002E06846FEF78FFC18F00C0F02D0B7
:104370005546002713E0BDF902402DE029467F1C79
:10438000059800F001FC01466D1A0598FFF754FCF2
:1043900005990844059005A800F03AFC08B9002DDD
:1043A000ECD108F00C00042804D0082802D00C2816
:1043B00012D105E0BDF9060007FB1604641C0BE0F2
:1043C000BDF90600BDF90210401A07FB1600401C9B
:1043D00000EBD07001EB60045546CDF814B043E01B
:1043E0002946059800F0D0FB07460146ED1B0598CD
:1043F00000F0A0FB18F003010ED0012939D00229EA
:104400000DD1BDF90410BDF90020891A091A01EB7C
:10441000D17102EB610101E0BDF900108946174A34
:10442000401E484412683946A2F822909484ADF8A0
:104430000C00A019401EADF80890ADF80E00ADF8C4
:104440000A4002AA0598FFF721FF39460598FFF7B1
:10445000F3FB059908440590FEF728FC044405A8E1
:1044600000F0D6FB002801D1002DB9D109B0BDE87C
:10447000F08FBDF90410091A491CCFE7140200207F
:104480002DE9FF4F8DB00020DDF86CA0164600909E
:104490001D4604460246CAF8000008AB03A902A85C
:1044A00000F0E2FA18B1002011B0BDE8F08F0898D2
:1044B000854200DD0546614F0B9561493868407CB7
:1044C00051F82010049109690691FEF7A1FB0590AF
:1044D0003868407CFEF73EFC5A498146884204D049
:1044E0005949894501D0012000E000200A9001CE01
:1044F0001A9988478346000E079077D0009870BBC2
:104500000D9800EB04084D480068B0F908004045DC
:1045100003DDA0EB0807804600E00027029804991D
:1045200000EB840000EB8700CDE900010B990D98AA
:10453000421809920E9B40461946521EFFF708F991
:1045400001200090059818280ADA0298DDE9052371
:1045500000EB840000EB8700E91B00F0E3F912E0B8
:104560000A9880B1029800EB840000EB8707099855
:10457000A0EB080849463868884701C7A8F1010040
:104580005FEA0008F6D13148C06980B3DDE902076F
:1045900000EB840007EB8402CDE902022B4C361FAE
:1045A0003046E4692B460299A047FF213068B1EB01
:1045B000106F02D10298006804E0029A1268B1EB11
:1045C000126F01D1039A1060029806F10406001DD3
:1045D00002900398001D03906D1EE7D10397DAF84F
:1045E000000040F00101CAF8001020E021E0FFE7E0
:1045F0000798FF2811D0C0F1FF02029850F824104C
:10460000584600F0C3FB039941F82400DAF8000093
:1046100040F00101CAF8001005E00298039950F833
:10462000240041F82400641C6D1E7FF460AF0398E1
:104630003AE7039941F824B0E8E7000014020020AB
:104640002C020020F77A0008F57A000850040020B8
:104650002DE9F04F8FB01D4616460F468146DDF816
:104660007480189CFEF715FB0B9003F08BF90190FA
:10467000DDE91A0108434FEA460B012803D04FF049
:10468000000A099709E188480068407CFEF762FB50
:104690001C994FF0000C884211D101200DF1040843
:1046A0001021009088E80308CDE9044C2B463246DF
:1046B0003946484602F0F8FE0FB0BDE8F08F781991
:1046C000401E049009EB0600A0F1010A764801683B
:1046D000B1F90A20BA4207DDD31B174603FB0BF2E0
:1046E00022F001021444ED1AB1F90E30049AD21AE4
:1046F000002A00DDAD1A002DDEDDB1F90C30AAEB89
:104700000302002A00DDB61AB1F90800484505DDAC
:10471000A0EB0900361A04EB40048144002ECBDDE7
:104720000020CDF818C00890B8F1000F09D0D8F8D3
:104730001400089028B100231A46194606A800F074
:1047400093F903F027F9804657480068407CFEF74C
:10475000F9FA0590D8F800C0524639464846049BFD
:10476000E04700285CD10698E8B34F484F490068FD
:10477000407C51F8200000690069049030E0089FF7
:104780000223324620460699B847049830B106996C
:10479000049F042332460846B8470EE006980027D7
:1047A0008246814607E000BF059959F8040B884707
:1047B0004AF8040B7F1CB742F6DB0027DDF818909F
:1047C00006E000BFD8F8041059F8040B88477F1C96
:1047D000B742F7DBD8F8080080472BF0010004440B
:1047E0006D1ECCD219E016E0A14600270AE000BFFA
:1047F0001C9939F8020B884705998847D8F80410A6
:1048000088477F1CB742F3DB3DB1D8F808008047EA
:104810002BF0010004446D1EE6D2D8F80C0080474E
:104820003DE01B99099808440D90401E07901E48D2
:1048300001680798B1F90A20824225DCB1F90E100F
:104840000998814220DBA0460027CDF8289019E086
:1048500038F8020B0090DDE90001884205D01C9970
:10486000884703F07DFC009801900A991A98079BED
:104870000A180092DDE90910521E03F04BF8009A65
:104880007F1C0A92B742E3DB0BEBDB7020F00100E8
:1048900004440D980AF1010A0990AA45C1DB0B985E
:1048A000FEF7E7FF08E70000140200202C020020BA
:1048B0002DE9F04F85B09B46DDE90F8792460C4607
:1048C0000546DDF83890FEF7AFFA15480068C16C70
:1048D0004E190D19016DABF1010001EB0A04ADF8A1
:1048E00010502044ADF80C60ADF81200ADF80E4049
:1048F00003A80AF07FF90BE0CDF80090CDE901871D
:104900005B462246294630460CF004FB0AF026F9A5
:104910000028F1D1FFF7A2FA05B0BDE8F08F000042
:10492000140200202DE9F05F0C1E16DD5E680146C2
:1049300000EB8405082A12DC611E012A26D0022A17
:1049400047D0042A6AD0082A07D1071917F8010DA1
:10495000B04745F8040D641EF8D1BDE8F09F102A59
:10496000FBDC5F693FB12246BC46BDE8F04F022345
:104970005DF804EB604701EB440700BF37F8020D18
:10498000B04745F8040D641EF8D1E6E700EBE100FE
:1049900001F0070710F801A98146802020FA07F8E6
:1049A000B5F104050AEA0800C7F10701C840B0479D
:1049B00045F804093FB14FEA48604FEA10687F1E8E
:1049C000641EEFD1C9E719F801A907274FF00108C4
:1049D000F6E700EBA10001F0030710F801A98146FA
:1049E0007900C02020FA01F84FF0060BB5F104055C
:1049F0000AEA0800ABEB4701C840B04745F8040994
:104A00003FB14FEA88604FEA10687F1E641EEFD105
:104A1000A3E7032719F801A9B846F7E700EB6100FF
:104A2000012710F801A9A7438146B900F02020FA18
:104A300001F84FF0040B2D1F0AEA0800ABEB8701C9
:104A4000C840B04745F804093FB14FEA08704FEA43
:104A500010687F1E641EEFD17FE719F801A90127B6
:104A60004FF00F08F6E700002DE9F047224C06460C
:104A70001F46A06990468946002540B90120A061E3
:104A800004F120011D480860084600F0E7F960695C
:104A900030B91B480068606110B902F0C2FF606164
:104AA00007B138604EB1A06830B960698000FDF789
:104AB0004BFBA06000B901253060B9F1000F0AD0AE
:104AC000E06830B960698000FDF73EFBE06000B946
:104AD0000125C9F80000B8F1000F0AD0206930B9EB
:104AE00060698000FDF730FB206100B90125C8F83E
:104AF00000002846BDE8F087500400205925010831
:104B00004402002030B4024CA468A44630BC604784
:104B10005003002013460A461946014B5B681847AC
:104B20005003002013460A461946014B1B681847DC
:104B30005003002073B5124A01A9009812689047EB
:104B400000240090C8B10F4900250968C969496966
:104B500059B10A684AB1019990477CBD6846FFF790
:104B60003FF80546FEF76AF804440198401E01909C
:104B7000F4D5284600F040F8044420467CBD0000EF
:104B8000780400201402002073B50D46009800241C
:104B900090B10A490968C969496959B14A684AB175
:104BA000294690477CBD6846FFF71AF820B10A28CD
:104BB00002D0641CAC42F6DB20467CBD140200200F
:104BC00031B50024009808B905E0641C6846FFF779
:104BD00007F80028F9D1204638BD0000044AB2F990
:104BE000002002600348B0F9000008607047000030
:104BF000540200205602002038B500246946009473
:104C0000FEF72EF80099814200DD0C1A204638BDCF
:104C1000016811F8012B12B10A2A02D002E001202A
:104C20007047016000207047B0F90030B1F90020F2
:104C3000934200DA0280B0F90230B1F902209342C7
:104C400000DA4280B0F90430B1F90420934200DD6B
:104C50008280B0F90620B1F906108A4200DDC180D9
:104C6000704770B5B1F90040B2F900309C4200DDE8
:104C700023460380B1F90250B2F90240A54200DD9B
:104C80002C464480B1F90460B2F90450AE4200DA17
:104C900035468580B1F90610B2F90620914200DB55
:104CA0001146C1809D4201DBA14201DA002070BDA6
:104CB000012070BD014602480068407C00F002B847
:104CC000140200202DE9F8430126044689460228F3
:104CD00057DADFF8B480080008F1040530D0012865
:104CE00002D002294DD116E055F8240088B920469B
:104CF000FDF7B0FC009010B3C0680D21426A684611
:104D0000904702003DD049460098904755F824004E
:104D10000026401C33E02046FDF79CFC009070B15B
:104D2000C0680D21426A68469047040029D0D8F82F
:104D3000000000B1804749460098A047002620E0C7
:104D400055F82400012813D12046FDF783FC00907C
:104D500070B1C0680D21426A68469047070007D0CD
:104D6000D8F8000000B1804749460098B8470026AF
:104D700055F8240008B1012100E00021401A45F84F
:104D800024003046BDE8F8835C03002070B5FF23A3
:104D9000B3EB116F2CD0C3B213FB02F500F47F44C8
:104DA00000F47F0354435343000E10FB02F6C2F19C
:104DB000FF00CAB212FB005201F47F4505FB00441C
:104DC00001F47F0505FB0033090E11FB0065C2F3FA
:104DD00007204FF47F024FF47F4102EA132201EAD9
:104DE00014214FF07F43084303EA0543104318435F
:104DF00070BD2DE9F04F0646DDE90CB915460C46AD
:104E000000208046584519D20B9F4FF0FF0A01CE73
:104E100008CCAAEB106202FB09F2B2FBFAF1CAB2AB
:104E20001946FFF7B3FF20F07F4001C57F1EEED18A
:104E3000099804EB800408F10100E2E7BDE8F08F77
:104E40000B88134403808B889B1A83804B88134400
:104E50004380C988891AC1807047000002494A69A5
:104E60004260486170470000080200202DE9F843C5
:104E70000768064688460025384600F0CBF840B360
:104E8000404600F0D7F8441C3846FDF7DFF984426D
:104E90000CD1F4B13846FDF7E7F9224641460090BF
:104EA000FBF7D1F96846FDF741FA11E02046FDF71E
:104EB000E5F804000DD0FDF7D7F941460090FBF767
:104EC000FBF96846FDF732FA3046FDF72FF93460FA
:104ED00001252846BDE8F88310B5044600F009F81E
:104EE00001462046BDE81040FEF7A6BE00230EF0A6
:104EF00033B877B581B015460E466B4601980EF073
:104F00002BF8044601460198FEF796FE01990844E5
:104F1000019001A8FEF764FE0A2802D0012D02D0FC
:104F200012E0641C10E020280ED1FDF787FE054634
:104F300007E02844009001A8641CFEF751FE2028D9
:104F400002D100988642F4DA04B0204670BD10B554
:104F500002E000F8011B521E0AB18307F9D1930841
:104F600018D001EB014402F0030204EB042406E034
:104F700010C01B1F10C040F8084B40F8044C042B15
:104F8000F6DA01E010C05B1E002BFBD102E000F856
:104F9000011B521E002AFAD110BD10B5830702D59D
:104FA00020F8021B521E530811D001EB0144042BC0
:104FB00009DB10C01B1F10C0042B40F8084B40F841
:104FC000044CF6DA01E010C05B1E002BFBD1D207C7
:104FD00000D0018010BD024600204FF080414318F0
:104FE000934201D8D21A581840088908F7D170475F
:104FF00000B907A021B906A102E03AB1401C491C42
:1050000002780B789A42F8D0012070470020704750
:105010000000000038B50D46012448B1FDF724F921
:1050200029460090FFF7E4FF04466846FDF77EF945
:10503000204638BD4FF0FF3128B100BF10F8012BDA
:10504000491C002AFAD108467047704710B50EF087
:1050500013FF05480121026851610068C16841F0F1
:105060000101C16010BD0000440F00202DE9F04196
:10507000044600680569224F69074FF004060BD506
:105080004661E06B40F00200E06384F82560A06BAD
:105090000765A06B00F019F9A8070DD5216802205B
:1050A0004861E06B40F00100E06384F82560A06B8C
:1050B0000765A06B00F009F9E80605D52168102006
:1050C0004861204600F059F8280705D521680820D6
:1050D0004861204600F0C6F8E8070FD02068016854
:1050E000890703D5C16821F01E01C1602068C1682D
:1050F00021F00101C1602046FFF7A8FFBDE8F08163
:105100003D06000810B5040003D094F8250010B146
:1051100004E0012010BD204600F030F8022084F8A1
:1051200025002068016840F6F872914301606169CA
:1051300060680843D4E9031211430843A168084397
:10514000A1690843216A084321680A68104308607E
:105150006068102805D1E17FE06961F31F60216874
:1051600088612068C16841F01E01C1600020E063D1
:10517000012084F82500002010BD7047334800B599
:10518000016887B041F001010160006800F0010092
:1051900005902E48001F016841F00101016001687F
:1051A00001F001010591016841F00201016001680F
:1051B00001F002010591016841F0040101600168FC
:1051C00001F004010591016841F0080101600168E6
:1051D00001F008010591016841F08001016000685B
:1051E000694600F080000590402000900220019068
:1051F00001200290032003900D200490144800F039
:10520000D7F94FF4607000906946124800F0D0F969
:105210004FF43C60009069460F4800F0C9F908203F
:10522000009069460D4800F0C3F94FF4807000907B
:1052300069460B4800F0BCF9002211464E2000F0F0
:105240003DFB4E2000F02EFB07B000BD343802407D
:10525000000002400004024000080240000C02402E
:10526000001C024070472DE9F0410446806800258B
:10527000069E80280ED094F8340001280FD001201B
:1052800084F8340094F8350001280AD00225284615
:10529000BDE8F0814FF4807060650125F7E70220DA
:1052A000F6E7022084F835002068076847F4802775
:1052B00007602068036133462046FBF7E3FA206865
:1052C000016841F001010160E1E790F83510022921
:1052D00003D08021416501207047052180F83510F9
:1052E0000068016821F0010101600020704770B57D
:1052F000040025D094F83500022820D020680168E9
:1053000021F00101016020680025056020684560EA
:10531000206885602068C5602068056121682120BB
:1053200048612046FBF770FA94F85C203F219140D9
:105330008160656584F8355084F83450002070BD74
:10534000012070BD2DE9F041044600F021FA064627
:105350005CB1002584F83450022084F835002068C0
:10536000016821F0010101600DE00120BDE8F0813C
:1053700000F00EFA801B052805D920206065032067
:1053800084F83500F2E720680068C007F0D1226891
:10539000116820480140D4E901031843D4E90336D9
:1053A0003343184363691843A3691843E3691843F7
:1053B000236A18430843616A042903D1D4E90B1313
:1053C00019430843106020684069666A20F00701AD
:1053D00030460E43012704280CD1A06A0643E06A38
:1053E00040B12046FBF724FA20B14020606584F8E4
:1053F0003570BAE7206846612046FBF705FA94F855
:105400005C203F2191408160656584F83570002003
:10541000ACE700003F8010F070B5044690F834000F
:10542000002501280CD0012084F8340094F8356060
:105430000020012E06D084F834000225284670BDD5
:10544000022070BD022684F8356060652046FBF7B7
:1054500028FA2068016841F001010160EEE70000D0
:1054600070B5044600F094F90546601C02D004486B
:105470000078044400F08CF9401BA042FAD370BDC0
:10548000700000202DE9F04701244FF48068DFF818
:105490009490254F6503254E40450CD105200EF014
:1054A0006BFC4146484600F069F9002838D1204895
:1054B000047020A00FE04FF4007840451CD1052077
:1054C0000EF05AFC4146484600F058F9002827D112
:1054D0002048047020A00EF043F9387800281FD12E
:1054E00001222946304600F04EF929463046BDE8F3
:1054F000F047002200F047B94FF40065A8420FD1F1
:1055000005200EF039FC2946484600F037F90028FE
:1055100006D118480470BDE8F04717A00EF020B976
:10552000BDE8F087001C0240030000200008024094
:10553000000000204B65792043414D4552415F54A6
:1055400052494747455220707265737365642E0A4D
:1055500000000000010000204B65792043414D45CB
:1055600052415F464F4355532070726573736564B3
:105570002E0A0000020000204B6579205357495441
:105580004348494E475F4D4F4445207072657373E1
:1055900065642E0A00000000044910B50A68024242
:1055A00002D00860FFF76EFF10BD0000143C014000
:1055B0002DE9F84FDFF890B100224FF001084FF0CD
:1055C000030A4FF00F090BF1040E00BF0B6808FA35
:1055D00002F42340A3426ED14D68022D01D0122D5A
:1055E0000ED1D50800EB850CDCF820505607F70EDD
:1055F00009FA07F6B5430E69BE402E43CCF8206089
:10560000066855000F790AFA05FC07F0030726EA39
:105610000C06AF40374307604E68012E05D0022EBE
:1056200003D0112E01D0122E0ED18768CE6827EA42
:105630000C07AE403E4386604668A6430C79C4F32F
:105640000014944034434460C4688E6824EA0C0417
:10565000AE402643C6604C68E4006FD53B4C2568DD
:1056600045F480452560246822F0030504F4804455
:105670000094374C2E19D6F8084895072F0F09FAD1
:1056800007F5AC43334DA84201D100252EE0324D41
:10569000A84201D1012529E0304DA84201D10225BF
:1056A00024E02F4DA84201D103251FE02D4DA84233
:1056B00002D104251AE041E02B4DA84201D1052575
:1056C00014E02A4DA84201D106250FE0284DA8423A
:1056D00001D107250AE0274DA84201D1082505E0A0
:1056E000254DA84201D1092500E00A25BD402543EA
:1056F000C6F80858DBF800405D464E689C43F60348
:1057000000D51C432C60DEF8004075464E689C4373
:10571000B60300D51C432C600B4D08352C684E6831
:105720009C43F60200D51C432C60074D0C352C68B9
:105730004E689C43B60200D51C432C60521C102AB4
:10574000FFF444AFBDE8F88F003C0140443802400C
:105750000030014000000240000402400008024006
:10576000000C0240001002400014024000180240E9
:10577000001C024000200240002402400069084052
:1057800000D0012070470AB1816170470904FBE72E
:10579000014880687047000070000020024881685E
:1057A0000278114481607047700000200B4810B5EA
:1057B000016841F400710160016841F48061016099
:1057C000016841F480710160052000F097F80F2016
:1057D00000F006F800F024F8002010BD003C024064
:1057E00070B50D4D04464FF47A712878B1FBF0F096
:1057F0000A490968B1FBF0F001F01DF948B9102C15
:1058000007D200222146501E00F058F800206C609C
:1058100070BD012070BD0000700000207C000020E1
:105820001F4808B5016841F480410160006800F438
:10583000804000901A48001F016841F080510160CB
:10584000006800F080500090032000F057F800221C
:1058500011466FF00B0000F031F8002211466FF096
:105860000A0000F02BF8002211466FF0090000F04A
:1058700025F800221146501F00F020F800221146A2
:10588000101F00F01BF800221146901E00F016F8C1
:105890000022BDE808401146501E00F00FB800007D
:1058A0004438024000F01F0201219140400980006D
:1058B00000F1E020C0F8001170470000F0B40E4B7A
:1058C0001B680C46C3F30223C3F10705042D00D95E
:1058D0000425191D072901D2002300E0DB1E012643
:1058E00006FA05F1491E214099409E40761E164059
:1058F0003143F0BC03F040B80CED00E0064900F085
:10590000070208684FF6FF03184040EA0220034AE6
:1059100010430860704700000CED00E00000FA053D
:105920000068416200207047F0B500680023446AB7
:1059300031B1856A4FF4827604EB15444D1E0AE0BE
:1059400044EA024181620FE006EB8307C7595B1C02
:1059500004EB1744DBB2AB42F6DB4FF4807303EB8E
:10596000810144EA024242500020F0BDD0F8EC032D
:1059700006F0F8BEC1EBC10200EB8202D0F8EC03E6
:10598000526C06F065BEC1EBC10200EB8202D0F89A
:10599000EC03D2F8042206F0B0BED0F8EC0306F017
:1059A000E3BE10B504460A460B0601F07F00C0EBCB
:1059B000C00104EB810101D5383101E001F5FC7132
:1059C0000870D009487094F8B803012809D0012064
:1059D00084F8B803206807F005FA002084F8B803BB
:1059E00010BD022010BD70B50A460446090602F03B
:1059F0007F0005D5C0EBC00104EB8101383105E023
:105A0000C2EBC20104EB810101F5FC7100258D7030
:105A10000870D009487094F8B803012809D0012013
:105A200084F8B803206807F0BEFB84F8B853002060
:105A300070BD022070BD70B504460D460E0601F023
:105A40007F00C0EBC00104EB810101D5383101E0DA
:105A500001F5FC71ED0908704D708A60CB7000D0C3
:105A6000C8800025022B00D10D7194F8B8030128DD
:105A700009D0012084F8B803206807F007F9284608
:105A800084F8B85370BD022070BD70B50C4601F0AB
:105A90007F05C5EBC50100EB8101C1F80C32C1F8EF
:105AA00004220023C1F8103281F8F93181F8F8514D
:105AB000036901F5FC71012B00D10A616206027CC9
:105AC000006803D007F0D0FB002070BD07F0ACFAEF
:105AD000FAE770B50D460446090605F07F0005D5C6
